:020000040800F2
:100000000028002041070008910700089107000818
:100010009107000891070008910700080000000000
:100020000000000000000000000000009107000830
:1000300091070008000000009107000891070008E0
:100040009107000891070008910700089107000830
:100050009107000891070008710100089501000848
:10006000B9010008DD01000801020008910700083D
:100070009107000891070008910700089107000800
:1000800091070008910700089107000891070008F0
:100090009107000891070008910700082502000851
:1000A00091070008910700089107000891070008D0
:1000B00091070008910700089107000891070008C0
:1000C00091070008910700089107000891070008B0
:1000D00091070008910700089107000891070008A0
:1000E000CD020008910700080000000091070008F9
:1000F0009107000891070008910700089107000880
:10010000910700089107000891070008910700086F
:10011000910700089107000891070008910700085F
:10012000910700089107000891070008910700084F
:1001300010B5054C237833B9044B13B10448AFF321
:1001400000800123237010BD00000020000000008B
:10015000DC07000808B5034B1BB103490348AFF3A4
:10016000008008BD0000000004000020DC0700083B
:1001700080B500AF054B5B69044A43F0010353614E
:10018000034B1B68984700BF80BD00BF00040140BF
:100190001C00002080B500AF054B5B69044A43F0AA
:1001A00002035361034B5B68984700BF80BD00BFEB
:1001B000000401401C00002080B500AF054B5B69C6
:1001C000044A43F004035361034B9B68984700BF04
:1001D00080BD00BF000401401C00002080B500AFBE
:1001E000054B5B69044A43F008035361034BDB682A
:1001F000984700BF80BD00BF000401401C000020E4
:1002000080B500AF054B5B69044A43F010035361AE
:10021000034B1B69984700BF80BD00BF000401402D
:100220001C00002080B500AF264B5B6903F0200363
:10023000002B08D0234B5B69224A43F02003536113
:10024000214B5B6998471F4B5B6903F04003002B10
:1002500008D01C4B5B691B4A43F0400353611A4BA7
:100260009B699847174B5B6903F08003002B08D00C
:10027000144B5B69134A43F080035361124BDB69F3
:100280009847104B5B6903F48073002B08D00D4B2B
:100290005B690C4A43F4807353610B4B1B6A9847AC
:1002A000084B5B6903F40073002B08D0054B5B69B6
:1002B000044A43F400735361034B5B6A984700BFE1
:1002C00080BD00BF000401401C00002080B500AFCD
:1002D0002D4B5B6903F48063002B08D02A4B5B69CC
:1002E000294A43F480635361284B9B6A9847264B05
:1002F0005B6903F40063002B08D0234B5B69224A3F
:1003000043F400635361214BDB6A98471E4B5B69E2
:1003100003F48053002B08D01B4B5B691A4A43F44B
:1003200080535361194B1B6B9847174B5B6903F460
:100330000053002B08D0144B5B69134A43F400535D
:100340005361124B5B6B98470F4B5B6903F480431F
:10035000002B08D00C4B5B690B4A43F4804353617C
:100360000A4B9B6B9847084B5B6903F40043002BD7
:1003700008D0054B5B69044A43F400435361034BC7
:10038000DB6B984700BF80BD000401401C000020CB
:1003900080B483B000AF0346FB80FB88B3F5004F09
:1003A00000F0A580B3F5004F00F3A380B3F5804FB4
:1003B00000F09B80B3F5804F00F39B80B3F5005FA6
:1003C00000F09180B3F5005F00F39380B3F5805F98
:1003D00000F08780B3F5805F00F38B80B3F5006F8A
:1003E0007DD0B3F5006F00F38480B3F5806F74D0D7
:1003F000B3F5806F7DDCB3F5007F6CD0B3F5007F83
:1004000077DCB3F5807F64D0B3F5807F71DC802B1F
:100410005DD0802B6DDC202B48DC002B69DD013B9F
:100420001F2B66D801A252F823F000BFB3040008C6
:10043000B7040008F3040008BB040008F304000834
:10044000F3040008F3040008BF040008F3040008E4
:10045000F3040008F3040008F3040008F3040008A0
:10046000F3040008F3040008C3040008F3040008C0
:10047000F3040008F3040008F3040008F304000880
:10048000F3040008F3040008F3040008F304000870
:10049000F3040008F3040008F3040008F304000860
:1004A000F3040008F3040008C7040008402B0CD034
:1004B0001FE000231EE004231CE008231AE00C23A5
:1004C00018E0102316E0142314E0182312E01C2374
:1004D00010E000230EE004230CE008230AE00C23C4
:1004E00008E0102306E0142304E0182302E01C2394
:1004F00000E0002318460C37BD4680BC704700BFA3
:1005000080B586B000AF7860396000233B6100237E
:10051000FB753B681B88802B02D97B68043300E0A5
:100520007B683B613B681B881846FFF731FF034639
:10053000FB603B691B680F21FA6801FA02F2D243A3
:100540001A403B691A603B689B78072B0BD03B68CD
:100550009B78062B07D03B689B78052B03D03B6824
:100560009B78042B0ED13B689B78043B9B005AB2CE
:100570003B68DB785BB213435BB2DBB203F00F0383
:10058000FB752CE03B689B78002B03D03B689B7885
:10059000012B07D13B689B789B00DBB203F00F0374
:1005A000FB751CE03B689B78082B02D10423FB758C
:1005B00015E00823FB753B689B78022B07D17B680D
:1005C000DB683A6812881A437B68DA6007E07B6868
:1005D000DA683B681B88DB431A407B68DA603B695A
:1005E0001A68F97DFB6801FA03F31A433B691A6044
:1005F00000BF1837BD4680BD80B485B000AF7860BD
:100600000B467B807B689B689AB27B8813409BB2C9
:10061000002B02D00123FB7301E00023FB73FB7B63
:1006200018461437BD4680BC704780B483B000AF15
:1006300078600B467B807B68DA687B885A407B68F1
:10064000DA6000BF0C37BD4680BC704780B400AF95
:10065000074B9B69064A43F004039361044B9B6973
:10066000034A43F00803936100BFBD4680BC704756
:100670000010024080B582B000AF0223BB8001238E
:10068000BB713B1D19461148FFF73AFF4FF4005369
:10069000BB803B1D19460D48FFF732FF0223BB808C
:1006A0000423BB710123FB713B1D19460848FFF76A
:1006B00027FF4FF40053BB803B1D19460448FFF74A
:1006C0001FFF00BF0837BD4680BD00BF00080140C6
:1006D000000C014080B582B000AFFFF7B7FFFFF715
:1006E000C9FF02211448FFF787FF0346002B0BD1F7
:1006F00002211248FFF799FF00BF02210E48FFF7C1
:100700007BFF0346002BF8D04FF400510A48FFF757
:1007100073FF0346012BE4D14FF400510748FFF764
:1007200084FF00237B6002E07B6801337B607B6891
:10073000B3F57A7FF8D3D4E700080140000C0140FC
:100740000D488546AFF300800C480D490D4A002343
:1007500002E0D458C4500433C4188C42F9D30A4A76
:100760000A4C002301E013600432A242FBD300F0E4
:1007700011F8FFF7AFFFFEE700280020000000207F
:1007800000000020FC070008000000205C000020A2
:10079000FEE7000070B500260C4D0D4C641BA41044
:1007A000A64209D100F01AF800260A4D0A4C641B33
:1007B000A410A64205D170BD55F8043B98470136F8
:1007C000EEE755F8043B98470136F2E7F4070008D6
:1007D000F4070008F4070008F8070008F8B500BFA0
:1007E000F8BC08BC9E467047F8B500BFF8BC08BC12
:0407F0009E4670476A
:0407F40055010008A3
:0407F80031010008C3
:0400000508000741A7
:00000001FF
