:020000040800F2
:100000000028002025030008750300087503000878
:100010007503000875030008750300080000000060
:100020000000000000000000000000007503000850
:100030007503000800000000750300087503000840
:1000400075030008750300087503000875030008B0
:1000500075030008750300087503000875030008A0
:100060007503000875030008750300087503000890
:100070007503000875030008750300087503000880
:100080007503000875030008750300087503000870
:100090007503000875030008750300087503000860
:1000A0007503000875030008750300087503000850
:1000B0007503000875030008750300087503000840
:1000C0007503000875030008750300087503000830
:1000D0007503000875030008750300087503000820
:1000E0007503000875030008000000007503000890
:1000F0007503000875030008750300087503000800
:1001000075030008750300087503000875030008EF
:1001100075030008750300087503000875030008DF
:1001200075030008750300087503000875030008CF
:1001300010B5054C237833B9044B13B10448AFF321
:1001400000800123237010BD00000020000000008B
:10015000C003000808B5034B1BB103490348AFF3C4
:10016000008008BD0000000004000020C00300085B
:1001700080B400AF074B1B68064A43F004031360CA
:10018000044B1B68034A43F00803136000BFBD46DD
:1001900080BC70471810024080B400AF404B002272
:1001A0001A60404B00221A603F4B00221A603F4BFE
:1001B00000221A603E4B00221A603E4B00221A6059
:1001C000384B1B68374A23F010031360354B1B680C
:1001D000344A23F020031360324B1B68314A43F04A
:1001E000400313602F4B1B682E4A23F080031360DB
:1001F0002B4B1B682A4A23F480131360284B1B687F
:10020000274A23F400131360254B1B68244A43F448
:1002100080031360224B1B68214A23F40003136000
:10022000234B1B68224A43F010031360204B1B68CA
:100230001F4A23F0200313601D4B1B681C4A23F048
:10024000400313601A4B1B68194A23F080031360A4
:10025000164B1B68154A43F480131360134B1B683D
:10026000124A23F400131360104B1B680F4A23F447
:10027000800313600D4B1B680C4A23F400031360CA
:100280000C4B1B680B4A43F002031360094B1B68BD
:10029000084A43F40053136000BFBD4680BC70475A
:1002A00004080140000801400C080140040C014012
:1002B000000C01400C0C014080B582B000AFFFF78C
:1002C00057FFFFF769FF154B1B6803F00203002B74
:1002D0000CD1134B1B68124A83F00203136000BF5A
:1002E0000E4B1B6803F00203002BF9D00B4B1B686D
:1002F0005B0B03F00103012BE5D1094B1B68084A96
:1003000083F40053136000237B6002E07B680133B9
:100310007B607B68B3F57A7FF8D3D4E708080140A7
:100320000C0C01400D488546AFF300800C480D4988
:100330000D4A002302E0D458C4500433C4188C4240
:10034000F9D30A4A0A4C002301E013600432A242A6
:10035000FBD300F011F8FFF7AFFFFEE70028002005
:100360000000002000000020E00300080000002042
:100370001C000020FEE7000070B500260C4D0D4C5F
:10038000641BA410A64209D100F01AF800260A4DF9
:100390000A4C641BA410A64205D170BD55F8043B5D
:1003A00098470136EEE755F8043B98470136F2E7E7
:1003B000D8030008D8030008D8030008DC030008AD
:1003C000F8B500BFF8BC08BC9E467047F8B500BF42
:0803D000F8BC08BC9E46704712
:0403D80055010008C3
:0403DC0031010008E3
:0400000508000325C7
:00000001FF
