:100000000C942A000C943F000C943F000C943F0089
:100010000C943F000C943F000C943F000C943F0064
:100020000C943F000C943F000C943F000C943F0054
:100030000C943F000C943F000C943F000C943F0044
:100040000C943F000C943F000C943F000C943F0034
:100050000C943F0011241FBECFE5D8E0DEBFCDBF1A
:1000600010E0A0E6B0E0ECE4F3E002C005900D92F1
:10007000A037B107D9F70E9459000C94A4010C9441
:100080000000FC018081682311F081E0089580E088
:100090000895442329F0FC012081622B6083089598
:1000A0006095FC012081622360830895FC016083D8
:1000B00008950E94220180E690E00E947B01FFCF1C
:1000C00041E068E088E390E00E9449002FE788E380
:1000D00091E0215080409040E1F700C0000040E0F6
:1000E00068E088E390E00E9449000895CF93C82F0C
:1000F0006BB36F70807F682B8BE390E00E9456009B
:1001000041E062E088E390E00E94490040E064E062
:1001100088E390E00E9449008FEC97E00197F1F7A7
:1001200000C000000E9460006BB320E1C29FC001CC
:1001300011246F70682B8BE390E00E94560041E021
:1001400062E088E390E00E94490040E064E088E3D8
:1001500090E00E9449008FEC97E00197F1F700C012
:1001600000000E946000CF9108956AB36F708AE327
:1001700090E00E94560041E064E088E390E00E9435
:10018000490040E062E088E390E00E94490060E8B6
:1001900089E390E00E94410081110E9460006AB3EF
:1001A000606F8AE390E00E94560040E064E088E3DC
:1001B00090E00E9449000895CF93C82F0E94B50097
:1001C0006BB36F708C2F807F682B8BE390E00E9465
:1001D000560040E062E088E390E00E94490040E081
:1001E00064E088E390E00E9449008FEC97E001977B
:1001F000F1F700C000000E9460006BB320E1C29FD5
:10020000C00111246F70682B8BE390E00E945600B0
:1002100040E062E088E390E00E94490040E064E052
:1002200088E390E00E9449008FEC97E00197F1F796
:1002300000C000000E946000CF91089581E00E94FC
:10024000DC0008958FE493EC0197F1F700C0000003
:1002500041E068E087E390E00E94490041E062E00D
:1002600087E390E00E94490041E064E087E390E08A
:100270000E94490040E068E088E390E00E94490065
:1002800040E062E088E390E00E94490040E064E0E2
:1002900088E390E00E9449006FEF8AE390E00E94BB
:1002A00056008FE295E70197F1F700C000000E9429
:1002B0001E0182E00E94DC0088E20E94DC0086E0F1
:1002C0000E94DC0080E80E94DC008FE00E94DC00DD
:1002D0000895813039F4603168F480E8860F0E9417
:1002E000DC000895823031F4603120F480EC860F18
:1002F0000E94DC0008950F931F93CF93DF938C012E
:10030000C0E0D0E018C00F5F1F4F0E94760021961A
:10031000C031D10529F460E082E00E9469010BC080
:10032000C032D10541F40E941E0160E081E00E94CC
:100330006901C0E0D0E0F80180818111E4CFDF9154
:0C034000CF911F910F910895F894FFCF0A
:10034C004C6561726E2D696E2D4465707468000089
:00000001FF
