:100000000C942A000C9462000C947E000C949A00CC
:100010000C94C1000C94C1000C94C1000C94C1005C
:100020000C94C1000C94C1000C94C1000C94C1004C
:100030000C94C1000C94C1000C94C1000C94C1003C
:100040000C94C1000C94C1000C94C1000C94C1002C
:100050000C94C10011241FBECFE5D8E0DEBFCDBF98
:0C0060000E9436000C94B600F894FFCF0C
:10006C0085B78D6085BF85B78D7F85BF84B78F7B46
:10007C0084BF8BB7806E8BBF789481B3806E81BB4D
:10008C0082B3806E82BB2FEF89E698E121508040CD
:10009C009040E1F700C0000082B3807EE9F382B3A8
:1000AC008F7182BB2FEF89E698E121508040904000
:0800BC00E1F700C00000F0CFE5
:1000C4001F920F920FB60F9211242F938F939F9329
:1000D40082B3806282BB2FEF89E698E12150804091
:1000E4009040E1F700C000009F918F912F910F90F5
:0800F4000FBE0F901F9018953C
:1000FC001F920F920FB60F9211242F938F939F93F1
:10010C0082B3806482BB2FEF89E698E12150804056
:10011C009040E1F700C000009F918F912F910F90BC
:08012C000FBE0F901F90189503
:100134001F920F920FB60F9211242F938F939F93B8
:1001440082B3806882BB2FEF89E698E1215080401A
:100154009040E1F700C000009F918F912F910F9084
:080164000FBE0F901F901895CB
:10016C00EC010E94C6000E94C500CE010E94C7008F
:06017C00CE010E94C30049
:040182000C940000D9
:040186000E9434009F
:02018A000895D6
:02018C000895D4
:02018E000895D2
:00000001FF
