:020000040800F2
:100000000028002039100008891000088910000815
:1000100089100008891000088910000800000000FD
:10002000000000000000000000000000891000082F
:1000300089100008000000008910000889100008DD
:10004000891000088910000889100008891000082C
:100050008910000889100008350A0008590A0008AC
:100060007D0A0008A10A0008C50A000889100008D6
:1000700089100008891000088910000889100008FC
:1000800089100008891000088910000889100008EC
:10009000891000088910000889100008E90A000882
:1000A00089100008891000088910000889100008CC
:1000B00089100008891000088910000889100008BC
:1000C00089100008891000088910000889100008AC
:1000D000891000088910000889100008891000089C
:1000E000910B00088910000800000000891000082A
:1000F000891000088910000889100008891000087C
:10010000891000088910000889100008891000086B
:10011000891000088910000889100008891000085B
:10012000891000088910000889100008891000084B
:1001300010B5054C237833B9044B13B10448AFF321
:1001400000800123237010BD00000020000000008B
:10015000D410000808B5034B1BB103490348AFF3A3
:10016000008008BD0000000004000020D41000083A
:1001700080B500AF192000F0DFFE404B4FF48062E5
:100180001A803E4B04229A703C4B0122DA703B49A4
:100190003B4800F017FE394B4FF480721A80374904
:1001A000374800F00FFE354B4FF400721A80334988
:1001B000334800F007FE00224FF48061304800F021
:1001C00096FE00224FF480712D4800F090FE002230
:1001D0004FF400712A4800F08AFE284B01221A8051
:1001E000264B04229A70254B0122DA7023492448B9
:1001F00000F0E8FD214B02221A802049204800F03F
:10020000E1FD1E4B04221A801C491D4800F0DAFD56
:100210001A4B08221A801949194800F0D3FD174BD0
:1002200010221A801549164800F0CCFD134B2022ED
:100230001A801249124800F0C5FD104B40221A8066
:100240000E490F4800F0BEFD0C4B80221A800B496E
:100250000B4800F0B7FD0F2000F06EFE00F012F822
:10026000382000F017F8062000F014F8802000F085
:1002700011F80F2000F00EF800BF80BD1C00002018
:100280000008014080B500AF012000F003F800BF76
:1002900080BD000080B582B000AF0346FB7100F066
:1002A000EBF82B4B01221A80294B04229A70284B21
:1002B0000122DA702649274800F084FD244B0222EF
:1002C0001A802349234800F07DFD214B04221A8027
:1002D0001F49204800F076FD1D4B08221A801C495A
:1002E0001C4800F06FFD1A4B10221A80184919485B
:1002F00000F068FD164B20221A801549154800F0C1
:1003000061FD134B40221A801149124800F05AFD3A
:100310000F4B80221A800E490E4800F053FDFB79E6
:100320009BB219460B4800F0F9FD00224FF4807192
:10033000084800F0DCFD00224FF40071054800F091
:10034000D6FD00F029F900BF0837BD4680BD00BFCB
:100350001C0000200008014080B582B000AF0346B9
:10036000FB7100F089F82B4B01221A80294B0422E3
:100370009A70284B0122DA702649274800F022FDA6
:10038000244B02221A802349234800F01BFD214BF5
:1003900004221A801F49204800F014FD1D4B08223A
:1003A0001A801C491C4800F00DFD1A4B10221A80BF
:1003B0001849194800F006FD164B20221A801549ED
:1003C000154800F0FFFC134B40221A8011491248D7
:1003D00000F0F8FC0F4B80221A800E490E4800F006
:1003E000F1FCFB799BB219460B4800F097FD012206
:1003F0004FF48071084800F07AFD00224FF400713C
:10040000054800F074FD00F0C7F800BF0837BD468E
:1004100080BD00BF1C0000200008014080B584B0F2
:1004200000AF78600023FB601CE07B685A1C7A6098
:100430001B781846FFF790FFFB680133FB60FB68F1
:10044000102B04D10021022000F0BCF80AE0FB6868
:10045000202B07D1FFF716FF0021012000F0B2F892
:100460000023FB607B681B78002BDED100BF00BF40
:100470001037BD4680BD000080B500AF444B01225F
:100480001A80434B01229A704149424800F09AFC7D
:100490003F4B02221A803E493E4800F093FC3C4B01
:1004A00004221A803A493B4800F08CFC384B082261
:1004B0001A803749374800F085FC354B10221A80E6
:1004C0003349344800F07EFC314B20221A803049F9
:1004D000304800F077FC2E4B40221A802C492D48E2
:1004E00000F070FC2A4B80221A802949294800F02C
:1004F00069FC8021274800F0E1FC0346002B01D075
:1005000000F04AF8224B01221A80214B04229A70F3
:100510001F4B0122DA701E491E4800F053FC1C4B91
:1005200002221A801A491B4800F04CFC184B042286
:100530001A801749174800F045FC154B08221A800D
:100540001349144800F03EFC114B10221A80104948
:10055000104800F037FC0E4B20221A800C490D4841
:1005600000F030FC0A4B40221A800949094800F08B
:1005700029FC074B80221A800549064800F022FC1E
:1005800000224FF40071034800F0B1FC00BF80BDB1
:100590001C0000200008014080B500AF01224FF48C
:1005A0008061074800F0A3FC322000F0C5FC002267
:1005B0004FF48061024800F09AFC00BF80BD00BF8C
:1005C0000008014080B582B000AF03460A46FB71C7
:1005D0001346BB71FB79012B09D1BB790F2B12D8C4
:1005E000BB79803BDBB21846FFF754FE0BE0FB798A
:1005F000022B08D1BB790F2B05D8BB79403BDBB26E
:100600001846FFF747FE00BF0837BD4680BD000013
:1006100080B483B000AF0346FB71FB79063B222B0D
:1006200079D801A252F823F0B5060008C3060008E5
:10063000D1060008DF060008ED06000817070008CD
:100640001707000817070008170700081707000812
:100650001707000817070008170700081707000802
:10066000170700081707000817070008FB0600080F
:1006700017070008170700081707000817070008E2
:1006800017070008170700081707000817070008D2
:1006900017070008170700081707000817070008C2
:1006A00017070008170700081707000817070008B2
:1006B000090700081A4B1B68194A43F040031360EE
:1006C00029E0174B1B68164A43F08003136022E0B1
:1006D000134B1B68124A43F4807313601BE0104BEA
:1006E0001B680F4A43F40073136014E00C4B1B6843
:1006F0000B4A43F4806313600DE0094B1B68084A02
:1007000043F40003136006E0064B1B68054A43F4FC
:100710008073136000BF00BF0C37BD4680BC7047BC
:1007200000E100E004E100E080B483B000AF0346E4
:10073000FB71FB79063B222B79D801A252F823F0FA
:10074000CD070008DB070008E9070008F7070008E5
:10075000050800082F0800082F0800082F080008C7
:100760002F0800082F0800082F0800082F0800088D
:100770002F0800082F0800082F0800082F0800087D
:100780002F080008130800082F0800082F08000889
:100790002F0800082F0800082F0800082F0800085D
:1007A0002F0800082F0800082F0800082F0800084D
:1007B0002F0800082F0800082F0800082F0800083D
:1007C0002F0800082F080008210800081A4B1B6892
:1007D000194A43F04003136029E0174B1B68164A7F
:1007E00043F08003136022E0134B1B68124A43F46A
:1007F000807313601BE0104B1B680F4A43F40073B7
:10080000136014E00C4B1B680B4A43F480631360C5
:100810000DE0094B1B68084A43F40003136006E02F
:10082000064B1B68054A43F48073136000BF00BF8A
:100830000C37BD4680BC704780E100E084E100E0F9
:1008400080B584B000AF78607B689B883B810123D2
:10085000BB727B681B6807F108021146184600F05E
:10086000B1FA7B689B799B08FB737B689B7903F0EB
:100870000303DBB29B00BB73614AFB7B023352F87C
:100880002320BB7B0F2101FA03F3DB4318465C49AD
:10089000FB7B0240023341F82320594AFB7B0233A1
:1008A00052F823207B681B6856498B4216D07B6820
:1008B0001B6855498B420FD07B681B6853498B429C
:1008C00008D07B681B6852498B4201D1032306E0A4
:1008D000002304E0022302E0012300E00023B97BAF
:1008E0008B4018464649FB7B0243023341F82320E4
:1008F0007B681B7A002B17D1464B9B687A689279EC
:10090000114601228A401146424A0B439360414BF3
:10091000DB687A689279114601228A40D2431146F7
:100920003C4A0B40D36035E07B681B7A012B17D122
:10093000384BDB687A689279114601228A40114669
:10094000344A0B43D360334B9B687A6892791146E3
:1009500001228A40D24311462E4A0B40936019E08F
:100960007B681B7A022B15D12A4B9B687A68927997
:10097000114601228A401146264A0B439360254BBB
:10098000DB687A689279114601228A401146214A31
:100990000B43D3607B685B7A012B10D11D4B1B6826
:1009A0007A689279114601228A401146194A0B430E
:1009B00013607B68DB791846FFF72AFE14E07B683A
:1009C0005B7A002B10D1134B1B687A689279114621
:1009D00001228A40D24311460E4A0B4013607B68C5
:1009E000DB791846FFF7A0FE7B689B7919467B6888
:1009F000DB68094A42F8213000BF1037BD4680BD90
:100A00000000014000080140000C014000100140BE
:100A100000140140000401402000002080B582B095
:100A200000AF78607868FFF70BFF00BF0837BD465E
:100A300080BD000080B500AF054B5B69044A43F000
:100A400001035361034B1B68984700BF80BD00BF83
:100A5000000401402000002080B500AF054B5B6919
:100A6000044A43F002035361034B5B68984700BF9D
:100A700080BD00BF000401402000002080B500AF11
:100A8000054B5B69044A43F004035361034B9B68C5
:100A9000984700BF80BD00BF000401402000002037
:100AA00080B500AF054B5B69044A43F0080353610E
:100AB000034BDB68984700BF80BD00BF00040140C6
:100AC0002000002080B500AF054B5B69044A43F06D
:100AD00010035361034B1B69984700BF80BD00BFE3
:100AE000000401402000002080B500AF264B5B6968
:100AF00003F02003002B08D0234B5B69224A43F00C
:100B000020035361214B5B6998471F4B5B6903F0DE
:100B10004003002B08D01C4B5B691B4A43F0400389
:100B200053611A4B9B699847174B5B6903F080032D
:100B3000002B08D0144B5B69134A43F080035361C8
:100B4000124BDB699847104B5B6903F48073002BF1
:100B500008D00D4B5B690C4A43F4807353610B4B17
:100B60001B6A9847084B5B6903F40073002B08D09D
:100B7000054B5B69044A43F400735361034B5B6AA2
:100B8000984700BF80BD00BF000401402000002046
:100B900080B500AF2D4B5B6903F48063002B08D058
:100BA0002A4B5B69294A43F480635361284B9B6A53
:100BB0009847264B5B6903F40063002B08D0234B56
:100BC0005B69224A43F400635361214BDB6A984717
:100BD0001E4B5B6903F48053002B08D01B4B5B69F1
:100BE0001A4A43F480535361194B1B6B9847174BB8
:100BF0005B6903F40053002B08D0144B5B69134A64
:100C000043F400535361124B5B6B98470F4B5B6986
:100C100003F48043002B08D00C4B5B690B4A43F470
:100C2000804353610A4B9B6B9847084B5B6903F405
:100C30000043002B08D0054B5B69044A43F4004392
:100C40005361034BDB6B984700BF80BD000401403C
:100C50002000002080B483B000AF0346FB80FB88F7
:100C6000B3F5004F00F0A580B3F5004F00F3A3806B
:100C7000B3F5804F00F09B80B3F5804F00F39B806D
:100C8000B3F5005F00F09180B3F5005F00F393804F
:100C9000B3F5805F00F08780B3F5805F00F38B8051
:100CA000B3F5006F7DD0B3F5006F00F38480B3F52A
:100CB000806F74D0B3F5806F7DDCB3F5007F6CD0AE
:100CC000B3F5007F77DCB3F5807F64D0B3F5807F28
:100CD00071DC802B5DD0802B6DDC202B48DC002B61
:100CE00069DD013B1F2B66D801A252F823F000BF3B
:100CF000770D00087B0D0008B70D00087F0D000878
:100D0000B70D0008B70D0008B70D0008830D0008E7
:100D1000B70D0008B70D0008B70D0008B70D0008A3
:100D2000B70D0008B70D0008B70D0008870D0008C3
:100D3000B70D0008B70D0008B70D0008B70D000883
:100D4000B70D0008B70D0008B70D0008B70D000873
:100D5000B70D0008B70D0008B70D0008B70D000863
:100D6000B70D0008B70D0008B70D00088B0D00087F
:100D7000402B0CD01FE000231EE004231CE00823BE
:100D80001AE00C2318E0102316E0142314E01823B3
:100D900012E01C2310E000230EE004230CE00823E3
:100DA0000AE00C2308E0102306E0142304E01823D3
:100DB00002E01C2300E0002318460C37BD4680BC2F
:100DC000704700BF80B586B000AF786039600023FF
:100DD0003B610023FB753B681B88802B02D97B6835
:100DE000043300E07B683B613B681B881846FFF7D3
:100DF00031FF0346FB603B691B680F21FA6801FA6B
:100E000002F2D2431A403B691A603B689B78072B79
:100E10000BD03B689B78062B07D03B689B78052B53
:100E200003D03B689B78042B0ED13B689B78043B36
:100E30009B005AB23B68DB785BB213435BB2DBB218
:100E400003F00F03FB752CE03B689B78002B03D06D
:100E50003B689B78012B07D13B689B789B00DBB2FA
:100E600003F00F03FB751CE03B689B78082B02D155
:100E70000423FB7515E00823FB753B689B78022B68
:100E800007D17B68DB683A6812881A437B68DA60AE
:100E900007E07B68DA683B681B88DB431A407B68A5
:100EA000DA603B691A68F97DFB6801FA03F31A43BB
:100EB0003B691A6000BF1837BD4680BD80B485B05D
:100EC00000AF78600B467B807B689B689AB27B881A
:100ED00013409BB2002B02D00123FB7301E00023DF
:100EE000FB73FB7B18461437BD4680BC704780B44B
:100EF00083B000AF78600B467B8013467B707B78B5
:100F0000002B03D07A887B681A6102E07A887B68BC
:100F10005A6100BF0C37BD4680BC704780B483B0B7
:100F200000AF78600B467B807A887B68DA6000BF10
:100F30000C37BD4680BC704780B485B000AF786088
:100F40000023FB600BE00023BB6002E0BB680133C1
:100F5000BB60BB68FE2BF9D9FB680133FB60FA6804
:100F60007B689A42EFD300BF00BF1437BD4680BCF8
:100F70007047000080B400AF0A4B9B69094A43F0F8
:100F800004039361074B9B69064A43F0080393618E
:100F9000044B9B69034A43F00103936100BFBD46C4
:100FA00080BC70470010024080B586B000AF0B4A8D
:100FB00007F1080392E8030083E8030001233B7470
:100FC000074B7B6101237B7407F108031846FFF789
:100FD00025FD00BF1837BD4680BD00BFEC100008DE
:100FE000E50F000880B500AF054B01221A600548E7
:100FF000FFF714FA40F2EE20FFF79EFF00BF80BD1E
:1010000060000020F410000880B500AFFFF7B2FFC9
:10101000FFF7AEF8FFF7C8FF4FF4FA70FFF78CFF49
:10102000044B1B68002BFBD0FFF72CF9014B00226F
:101030001A60F5E7600000200D488546AFF3008098
:101040000C480D490D4A002302E0D458C450043323
:10105000C4188C42F9D30A4A0A4C002301E01360F9
:101060000432A242FBD300F011F8FFF7CDFFFEE7F8
:101070000028002000000020000000201C110008B3
:101080000000002064000020FEE7000070B500268C
:101090000C4D0D4C641BA410A64209D100F01AF8A7
:1010A00000260A4D0A4C641BA410A64205D170BD4F
:1010B00055F8043B98470136EEE755F8043B98474E
:1010C0000136F2E714110008141100081411000889
:1010D00018110008F8B500BFF8BC08BC9E46704760
:0C10E000F8B500BFF8BC08BC9E46704785
:1010EC00000C01400002091745585449204C696E08
:1010FC0065203920495251207761732074726967D9
:08110C0067657265642E2E0078
:041114005501000879
:041118003101000899
:0400000508001039A6
:00000001FF
