:100000000C942A000C943F000C943F000C943F0089
:100010000C943F000C943F000C943F000C943F0064
:100020000C943F000C943F000C943F000C943F0054
:100030000C943F000C943F000C943F000C943F0044
:100040000C943F000C943F000C943F000C943F0034
:100050000C943F0011241FBECFE5D8E0DEBFCDBF1A
:1000600011E0A0E6B0E0E8EAFDE002C005900D92E4
:10007000AE31B107D9F70E94C7010C94D2060C9497
:10008000000088B3886088BB2FE788E391E02150A7
:1000900080409040E1F700C0000088B3877F88BBB4
:1000A00008958AB31ABA88B3846088BB88B38D7FF9
:1000B00088BBCF990E9441008AB38FEF8ABB88B377
:1000C0008B7F88BB0895CF93C82F0E945100CBBB74
:1000D00088B3897F88BB0E944100CF91089581E059
:1000E0000E94630008958FE493EC0197F1F700C03C
:1000F000000087B38E6087BB88B3817F88BB8FEF9A
:100100008ABB8FE295E70197F1F700C000000E94DB
:100110006F0088E30E94630086E00E94630080E82D
:100120000E9463008FE00E9463000895CF93C82F60
:100130000E945100CBBB88B3826088BB88B38B7FA1
:1001400088BB0E944100CF910895813039F460311D
:1001500068F480E8860F0E9463000895823031F4CD
:10016000603120F480EC860F0E94630008950F93A5
:100170001F93CF93DF938C01C0E0D0E018C00F5FD6
:100180001F4F0E9496002196C031D10529F460E0EE
:1001900082E00E94A5000BC0C032D10541F40E944C
:1001A0006F0060E081E00E94A500C0E0D0E0F801AF
:1001B00080818111E4CFDF91CF911F910F9108953C
:1001C0000F931F93CF93DF93CDB7DEB727970FB66B
:1001D000F894DEBF0FBECDBF9F938F9380E690E073
:1001E0009F938F938E010F5F1F4F1F930F930E945A
:1001F000E803C8010E94B7000F900F900F900F9076
:100200000F900F9027960FB6F894DEBF0FBECDBFAC
:10021000DF91CF911F910F9108958F929F92AF928E
:10022000BF92CF92DF92EF92FF920F931F93CF93E3
:10023000DF93CDB7DEB760970FB6F894DEBF0FBE81
:10024000CDBF6B017C0120E030E0A9010E948E024D
:1002500088231CF403E610E002C00BED10E020E060
:1002600030E0A901C701B6010E948E02882324F460
:10027000F7FAF094F7F8F094C701B6010E949302E0
:100280004B015C01072E000C880B990B0E94CB02DE
:100290009B01AC01C701B6010E94210220E030E5BC
:1002A00043EC57E40E947B030E9493027F936F9379
:1002B0009F928F921F930F9385E690E09F938F9369
:1002C0008E010F5F1F4F1F930F930E94E803C80119
:1002D0000E94B7000FB6F894DEBF0FBECDBF609688
:1002E0000FB6F894DEBF0FBECDBFDF91CF911F9147
:1002F0000F91FF90EF90DF90CF90BF90AF909F90C5
:100300008F90089580E40E94630080E00E94960030
:100310008EE00E94960081E10E94960082E00E9499
:10032000960084E00E94960084E00E94960080E09F
:100330000E94960084E00E94960066E081E00E94A0
:10034000A50080E00E94960088E40E94630080E09F
:100350000E9496008AE00E94960085E10E94960025
:1003600081E10E94960082E10E94960084E00E9452
:10037000960080E00E94960080E00E94960069E06E
:1003800081E00E94A50081E00E94960008950E94ED
:1003900073008FE690E00E94B7002FEF84E39CE0AB
:1003A000215080409040E1F700C000000E946F00A3
:1003B00089E890E00E94B7002FEF84E39CE0215091
:1003C00080409040E1F700C000000E946F008AEB7F
:1003D00090E00E94B70068E775E284EB92EC0E941F
:1003E0000D012FEF84E39CE0215080409040E1F725
:1003F00000C000000E946F008CED90E00E94B700EA
:1004000083E690E00E94E0002FEF84E39CE021501F
:1004100080409040E1F700C000000E946F0087EF2D
:1004200090E00E94B7000E9482012FEF89E698E1D8
:10043000215080409040E1F700C000000E946F0012
:10044000A8CF5058BB27AA270E9439020C94410319
:100450000E94330338F00E943A0320F039F49F3FA2
:1004600019F426F40C9430030EF4E095E7FB0C9499
:100470002A03E92F0E94520358F3BA176207730741
:100480008407950720F079F4A6F50C9474030EF414
:10049000E0950B2EBA2FA02D0B01B90190010C0194
:1004A000CA01A0011124FF27591B99F0593F50F4AC
:1004B000503E68F11A16F040A22F232F342F442704
:1004C000585FF3CF469537952795A795F0405395FC
:1004D000C9F77EF41F16BA0B620B730B840BBAF0CC
:1004E0009150A1F0FF0FBB1F661F771F881FC2F737
:1004F0000EC0BA0F621F731F841F48F4879577954B
:100500006795B795F7959E3F08F0B0CF9395880F04
:1005100008F09927EE0F9795879508950E94060396
:1005200008F481E008950E949A026894B1110C9435
:10053000750308950E945A0388F09F5798F0B92FC9
:100540009927B751B0F0E1F0660F771F881F991F08
:100550001AF0BA95C9F714C0B13091F00E94740333
:10056000B1E008950C947403672F782F8827B85F43
:1005700039F0B93FCCF3869577956795B395D9F760
:100580003EF490958095709561957F4F8F4F9F4F6A
:100590000895E89409C097FB3EF490958095709576
:1005A00061957F4F8F4F9F4F9923A9F0F92F96E9BF
:1005B000BB279395F695879577956795B795F11134
:1005C000F8CFFAF4BB0F11F460FF1BC06F5F7F4FD1
:1005D0008F4F9F4F16C0882311F096E911C07723E3
:1005E00021F09EE8872F762F05C0662371F096E8EC
:1005F000862F70E060E02AF09A95660F771F881FBB
:10060000DAF7880F9695879597F90895990F00085E
:10061000550FAA0BE0E8FEEF16161706E807F907D4
:10062000C0F012161306E407F50798F0621B730B6F
:10063000840B950B39F40A2661F0232B242B252BF0
:1006400021F408950A2609F4A140A6958FEF811D93
:10065000811D089597F99F6780E870E060E0089534
:100660009FEF80EC089500240A94161617061806CA
:100670000906089500240A941216130614060506A6
:100680000895092E0394000C11F4882352F0BB0F37
:1006900040F4BF2B11F460FF04C06F5F7F4F8F4F9A
:1006A0009F4F089557FD9058440F551F59F05F3FD5
:1006B00071F04795880F97FB991F61F09F3F79F084
:1006C00087950895121613061406551FF2CF469506
:1006D000F1DF08C0161617061806991FF1CF869588
:1006E0007105610508940895E894BB27662777276C
:1006F000CB0197F908950E948E030C9441030E9448
:10070000330338F00E943A0320F0952311F00C9443
:100710002A030C94300311240C9475030E94520395
:1007200070F3959FC1F3950F50E0551F629FF00144
:10073000729FBB27F00DB11D639FAA27F00DB11D5D
:10074000AA1F649F6627B00DA11D661F829F2227E6
:10075000B00DA11D621F739FB00DA11D621F839F6D
:10076000A00D611D221F749F3327A00D611D231F43
:10077000849F600D211D822F762F6A2F11249F5791
:1007800050409AF0F1F088234AF0EE0FFF1FBB1F94
:10079000661F771F881F91505040A9F79E3F510553
:1007A00080F00C942A030C9475035F3FE4F3983EA9
:1007B000D4F3869577956795B795F795E7959F5FFD
:1007C000C1F7FE2B880F911D9695879597F908958F
:1007D000AEE0B0E0EEEEF3E00C94A9060D891E89C0
:1007E00086E08C831A8309838FEF9FE79E838D8336
:1007F000AE01475E5F4F6F89788DCE0101960E94F2
:100800000A04EF81F885E00FF11F10822E96E4E0D4
:100810000C94C506ABE0B0E0E0E1F4E00C949B067C
:100820006C017B018A01FC0117821682838181FFA2
:10083000CCC1CE0101963C01F6019381F70193FDF5
:10084000859193FF81917F01882309F4BAC1853294
:1008500039F493FD859193FF81917F01853229F4CD
:10086000B60190E00E940106E7CF912C212C312C9B
:10087000FFE1F315D8F08B3279F038F4803279F05B
:100880008332A1F4232D20611DC08D3261F08033AD
:1008900069F4232D216016C0832D8260382EE32D4C
:1008A000E4603E2E2AC0F32DF8601DC037FC2DC039
:1008B00020ED280F2A3040F08E32B9F436FC81C189
:1008C000232D2064322E19C036FE06C08AE0989E81
:1008D000200D1124922E11C0EAE02E9E200D11242D
:1008E000222EF32DF0623F2E08C08C3621F4832D8A
:1008F0008068382E02C0883641F4F70193FD859157
:1009000093FF81917F018111B3CF982F9F7D9554E3
:10091000933028F40C5F1F4F9FE399830DC08336FB
:1009200031F0833771F0833509F059C021C0F801E7
:10093000808189830E5F1F4F88248394912C5301FB
:1009400013C02801F2E04F0E511CF801A080B180C5
:1009500036FE03C0692D70E002C06FEF7FEFC50166
:100960000E94F6054C018201F32DFF773F2E16C041
:10097000280122E0420E511CF801A080B18036FE11
:1009800003C0692D70E002C06FEF7FEFC5010E94C8
:10099000EB054C01F32DF0683F2E820133FC1BC0A8
:1009A000822D90E088169906B0F4B60180E290E0BE
:1009B0000E9401062A94F4CFF50137FC859137FE99
:1009C00081915F01B60190E00E94010621102A94F6
:1009D00021E0821A91088114910471F7E8C08436ED
:1009E00011F0893641F5F80137FE07C06081718149
:1009F000828193810C5F1F4F08C060817181072E37
:100A0000000C880B990B0E5F1F4FF32DFF763F2EC6
:100A100097FF09C090958095709561957F4F8F4F96
:100A20009F4FF0683F2E2AE030E0A3010E943D0670
:100A3000882E861845C0853731F4232D2F7EB22E9F
:100A40002AE030E025C0932D997FB92E8F36C1F072
:100A500018F4883579F0B5C0803719F0883721F05F
:100A6000B0C0E92FE061BE2EB4FE0DC0FB2DF460D6
:100A7000BF2E09C034FE0AC0292F2660B22E06C040
:100A800028E030E005C020E130E002C020E132E0A3
:100A9000F801B7FE07C060817181828193810C5F8C
:100AA0001F4F06C06081718180E090E00E5F1F4F94
:100AB000A3010E943D06882E8618FB2DFF773F2E4E
:100AC00036FE0DC0232D2E7FA22E891458F434FE3D
:100AD0000BC032FC09C0832D8E7EA82E05C0B82C19
:100AE000A32C03C0B82C01C0B92CA4FE0FC0FE017A
:100AF000E80DF11D8081803321F49A2D997EA92E75
:100B000009C0A2FE06C0B394B39404C08A2D8678AF
:100B100009F0B394A3FC11C0A0FE06C0B21488F47F
:100B2000280C922C9B180EC0B21460F4B60180E21F
:100B300090E00E940106B394F7CFB21418F42B187A
:100B400002C0982C212CA4FE10C0B60180E390E0D6
:100B50000E940106A2FE17C0A1FC03C088E790E036
:100B600002C088E590E0B6010CC08A2D867859F065
:100B7000A1FE02C08BE201C080E2A7FC8DE2B601BB
:100B800090E00E940106891438F4B60180E390E0F9
:100B90000E9401069A94F7CF8A94F301E80DF11DA3
:100BA0008081B60190E00E9401068110F5CF2220DD
:100BB00009F442CEB60180E290E00E9401062A9438
:100BC000F6CFF6018681978102C08FEF9FEF2B96BB
:100BD000E2E10C94B706FC010590615070400110F1
:100BE000D8F7809590958E0F9F1F0895FC01615056
:100BF000704001900110D8F7809590958E0F9F1F3F
:100C000008950F931F93CF93DF93FB01238121FD61
:100C100003C08FEF9FEF2CC022FF16C04681578183
:100C2000248135814217530744F4A081B1819D018D
:100C30002F5F3F4F318320838C93268137812F5F35
:100C40003F4F3783268314C08B01EC01FB010084E6
:100C5000F185E02D0995892BE1F6D80116968D9145
:100C60009C911797019617969C938E931697CE0199
:100C7000DF91CF911F910F910895FA01AA27283093
:100C800051F1203181F1E8946F936E7F6E5F7F4F59
:100C90008F4F9F4FAF4FB1E03ED0B4E03CD0670FD5
:100CA000781F891F9A1FA11D680F791F8A1F911D28
:100CB000A11D6A0F711D811D911DA11D20D009F478
:100CC00068943F912AE0269F11243019305D3193BA
:100CD000DEF6CF010895462F4770405D4193B3E0A3
:100CE0000FD0C9F7F6CF462F4F70405D4A3318F04A
:100CF000495D31FD4052419302D0A9F7EACFB4E0FB
:100D0000A6959795879577956795BA95C9F70097B2
:100D10006105710508959B01AC010A2E0694579553
:100D2000479537952795BA95C9F7620F731F841FAA
:100D3000951FA01D08952F923F924F925F926F9240
:100D40007F928F929F92AF92BF92CF92DF92EF925B
:100D5000FF920F931F93CF93DF93CDB7DEB7CA1BDC
:100D6000DB0B0FB6F894DEBF0FBECDBF09942A8807
:100D7000398848885F846E847D848C849B84AA84AF
:100D8000B984C884DF80EE80FD800C811B81AA813C
:100D9000B981CE0FD11D0FB6F894DEBF0FBECDBF07
:080DA000ED010895F894FFCF66
:100DA8002564002D00257325642E25303564004800
:100DB800656C6C6F212049276D204D696E6120425A
:100DC8006173616C6C792E2E0054686973206973A5
:100DD8002061206272696566205465737420746F9F
:100DE8002076657269667920206D79204C43442D00
:100DF8004472697665722E2E2E00446973706C6198
:100E080079696E6720612D2020205265616C204E23
:100E1800756D62657220203A202020004469737045
:100E28006C6179696E6720616E2D2020496E74654A
:100E3800676572203A2000446973706C6179696E45
:100E480067202020202020437573746F6D2043682D
:0E0E58006172616374652D7273203A20200070
:00000001FF
