:020000040800F2
:1000000000280020510C0008A10C0008A10C0008D9
:10001000A10C0008A10C0008A10C000800000000C1
:10002000000000000000000000000000A10C00081B
:10003000A10C000800000000A10C0008A10C0008A1
:10004000A10C0008A10C0008A10C0008A10C0008DC
:10005000A10C0008A10C0008A10C0008A10C0008CC
:10006000A10C0008A10C0008A10C0008A10C0008BC
:10007000A10C0008A10C0008A10C0008A10C0008AC
:10008000A10C0008A10C0008A10C0008A10C00089C
:10009000A10C0008A10C0008A10C0008A10C00088C
:1000A000A10C0008A10C0008A10C0008A10C00087C
:1000B000A10C0008A10C0008A10C0008A10C00086C
:1000C000A10C0008A10C0008A10C0008A10C00085C
:1000D000A10C0008A10C0008A10C0008A10C00084C
:1000E000A10C0008A10C000800000000A10C0008F1
:1000F000A10C0008A10C0008A10C0008A10C00082C
:10010000A10C0008A10C0008A10C0008A10C00081B
:10011000A10C0008A10C0008A10C0008A10C00080B
:10012000A10C0008A10C0008A10C0008A10C0008FB
:1001300010B5054C237833B9044B13B10448AFF321
:1001400000800123237010BD20000020000000006B
:10015000EC0C000808B5034B1BB103490348AFF38F
:10016000008008BD0000000024000020EC0C000806
:1001700080B500AF344B01221A80334B04229A70B1
:10018000314B0122DA703049304800F029FC2E4B07
:1001900002221A802C492D4800F022FC2A4B08220A
:1001A0001A802949294800F01BFC274B10221A808D
:1001B0002549264800F014FC234B20221A802249AE
:1001C000224800F00DFC204B40221A801E491F4897
:1001D00000F006FC1C4B80221A801B491B4800F0D3
:1001E000FFFB194B4FF480721A801749174800F033
:1001F000F7FB01220121154800F087FC01220221B2
:10020000124800F082FC01220821104800F07DFC19
:10021000012210210D4800F078FC012220210B481A
:1002200000F073FC01224021084800F06EFC01221E
:100230008021064800F069FC01224FF480710348D8
:1002400000F063FC00BF80BD3C000020000C0140BA
:1002500080B582B000AF00237B60AAE0012220219C
:10026000584800F052FC01224021564800F04DFC55
:1002700001228021534800F048FC01224FF4807194
:10028000504800F042FC504A7B6852F823309BB241
:10029000002219464B4800F038FC00233B6081E007
:1002A0004A4A3B6852F823309BB21946454800F051
:1002B00013FC0346002B72D100BF444A3B6852F83E
:1002C00023309BB219463F4800F006FC0346002B42
:1002D000F3D07B68032B62D801A252F823F000BF51
:1002E000F10200081903000841030008690300082F
:1002F0003B68002B01D1372360E03B68012B01D123
:1003000034235BE03B68022B01D1312356E03B688C
:10031000032B3DD1212351E03B68002B01D1382331
:100320004CE03B68012B01D1352347E03B68022BB1
:1003300001D1322342E03B68032B2BD130233DE037
:100340003B68002B01D1392338E03B68012B01D1F8
:10035000362333E03B68022B01D133232EE03B6888
:10036000032B19D13D2329E03B68002B01D12F231A
:1003700024E03B68012B01D12A231FE03B68022BBC
:1003800001D12D231AE03B68032B07D12B2315E065
:1003900000BF04E000BF02E000BF00E000BF3B6818
:1003A00001333B603B68032B7FF67AAF7B680133F8
:1003B0007B607B68032B7FF651AF412318460837DB
:1003C000BD4680BD000C0140100000200000002050
:1003D00080B500AF192000F0BDFB404B4FF48062A8
:1003E0001A803E4B04229A703C4B0122DA703B4942
:1003F0003B4800F0F5FA394B4FF400621A80374958
:10040000374800F0EDFA354B4FF400721A8033494B
:10041000334800F0E5FA00224FF48061304800F0E4
:1004200074FB00224FF400612D4800F06EFB0022A7
:100430004FF400712A4800F068FB284B01221A8013
:10044000264B04229A70254B0122DA702349244856
:1004500000F0C6FA214B02221A802049204800F001
:10046000BFFA1E4B04221A801C491D4800F0B8FA3E
:100470001A4B08221A801949194800F0B1FA174B93
:1004800010221A801549164800F0AAFA134B2022B0
:100490001A801249124800F0A3FA104B40221A8029
:1004A0000E490F4800F09CFA0C4B80221A800B4931
:1004B0000B4800F095FA0F2000F04CFB00F012F80A
:1004C000382000F017F8062000F014F8802000F023
:1004D00011F80F2000F00EF800BF80BD4000002092
:1004E0000008014080B500AF012000F003F800BF14
:1004F00080BD000080B582B000AF0346FB7100F004
:10050000EBF82B4B01221A80294B04229A70284BBE
:100510000122DA702649274800F062FA244B0222B1
:100520001A802349234800F05BFA214B04221A80E9
:100530001F49204800F054FA1D4B08221A801C491C
:100540001C4800F04DFA1A4B10221A80184919481D
:1005500000F046FA164B20221A801549154800F083
:100560003FFA134B40221A801149124800F038FA22
:100570000F4B80221A800E490E4800F031FAFB79A9
:100580009BB219460B4800F0D7FA00224FF40061E5
:10059000084800F0BAFA00224FF40071054800F054
:1005A000B4FA00F029F900BF0837BD4680BD00BF8E
:1005B000400000200008014080B582B000AF034633
:1005C000FB7100F089F82B4B01221A80294B042281
:1005D0009A70284B0122DA702649274800F000FA69
:1005E000244B02221A802349234800F0F9F9214BB9
:1005F00004221A801F49204800F0F2F91D4B0822FE
:100600001A801C491C4800F0EBF91A4B10221A8082
:100610001849194800F0E4F9164B20221A801549B0
:10062000154800F0DDF9134B40221A801149124899
:1006300000F0D6F90F4B80221A800E490E4800F0C8
:10064000CFF9FB799BB219460B4800F075FA0122ED
:100650004FF40061084800F058FA00224FF400718E
:10066000054800F052FA00F0C7F800BF0837BD4651
:1006700080BD00BF400000200008014080B584B06C
:1006800000AF78600023FB601CE07B685A1C7A6036
:100690001B781846FFF790FFFB680133FB60FB688F
:1006A000102B04D10021022000F0BCF80AE0FB6806
:1006B000202B07D1FFF716FF0021012000F0B2F830
:1006C0000023FB607B681B78002BDED100BF00BFDE
:1006D0001037BD4680BD000080B500AF444B0122FD
:1006E0001A80434B01229A704149424800F078F940
:1006F0003F4B02221A803E493E4800F071F93C4BC4
:1007000004221A803A493B4800F06AF9384B082223
:100710001A803749374800F063F9354B10221A80A8
:100720003349344800F05CF9314B20221A803049BB
:10073000304800F055F92E4B40221A802C492D48A4
:1007400000F04EF92A4B80221A802949294800F0EE
:1007500047F98021274800F0BFF90346002B01D05C
:1007600000F04AF8224B01221A80214B04229A7091
:100770001F4B0122DA701E491E4800F031F91C4B54
:1007800002221A801A491B4800F02AF9184B042249
:100790001A801749174800F023F9154B08221A80D0
:1007A0001349144800F01CF9114B10221A8010490B
:1007B000104800F015F90E4B20221A800C490D4804
:1007C00000F00EF90A4B40221A800949094800F04E
:1007D00007F9074B80221A800549064800F000F906
:1007E00000224FF40071034800F08FF900BF80BD74
:1007F000400000200008014080B500AF01224FF406
:100800008061074800F081F9322000F0A3F900224E
:100810004FF48061024800F078F900BF80BD00BF4E
:100820000008014080B582B000AF03460A46FB7164
:100830001346BB71FB79012B09D1BB790F2B12D861
:10084000BB79803BDBB21846FFF754FE0BE0FB7927
:10085000022B08D1BB790F2B05D8BB79403BDBB20B
:100860001846FFF747FE00BF0837BD4680BD0000B1
:1008700080B483B000AF0346FB80FB88B3F5004F24
:1008800000F0A580B3F5004F00F3A380B3F5804FCF
:1008900000F09B80B3F5804F00F39B80B3F5005FC1
:1008A00000F09180B3F5005F00F39380B3F5805FB3
:1008B00000F08780B3F5805F00F38B80B3F5006FA5
:1008C0007DD0B3F5006F00F38480B3F5806F74D0F2
:1008D000B3F5806F7DDCB3F5007F6CD0B3F5007F9E
:1008E00077DCB3F5807F64D0B3F5807F71DC802B3B
:1008F0005DD0802B6DDC202B48DC002B69DD013BBB
:100900001F2B66D801A252F823F000BF93090008FC
:1009100097090008D30900089B090008D3090008BB
:10092000D3090008D30900089F090008D30900086B
:10093000D3090008D3090008D3090008D309000827
:10094000D3090008D3090008A3090008D309000847
:10095000D3090008D3090008D3090008D309000807
:10096000D3090008D3090008D3090008D3090008F7
:10097000D3090008D3090008D3090008D3090008E7
:10098000D3090008D3090008A7090008402B0CD0A0
:100990001FE000231EE004231CE008231AE00C23C0
:1009A00018E0102316E0142314E0182312E01C238F
:1009B00010E000230EE004230CE008230AE00C23DF
:1009C00008E0102306E0142304E0182302E01C23AF
:1009D00000E0002318460C37BD4680BC704700BFBE
:1009E00080B586B000AF7860396000233B6100239A
:1009F000FB753B681B88802B02D97B68043300E0C1
:100A00007B683B613B681B881846FFF731FF034654
:100A1000FB603B691B680F21FA6801FA02F2D243BE
:100A20001A403B691A603B689B78072B0BD03B68E8
:100A30009B78062B07D03B689B78052B03D03B683F
:100A40009B78042B0ED13B689B78043B9B005AB2E9
:100A50003B68DB785BB213435BB2DBB203F00F039E
:100A6000FB752CE03B689B78002B03D03B689B78A0
:100A7000012B07D13B689B789B00DBB203F00F038F
:100A8000FB751CE03B689B78082B02D10423FB75A7
:100A900015E00823FB753B689B78022B07D17B6828
:100AA000DB683A6812881A437B68DA6007E07B6883
:100AB000DA683B681B88DB431A407B68DA603B6975
:100AC0001A68F97DFB6801FA03F31A433B691A605F
:100AD00000BF1837BD4680BD80B485B000AF7860D8
:100AE0000B467B807B689B689AB27B8813409BB2E5
:100AF000002B02D00123FB7301E00023FB73FB7B7F
:100B000018461437BD4680BC704780B483B000AF30
:100B100078600B467B8013467B707B78002B03D07C
:100B20007A887B681A6102E07A887B685A6100BF24
:100B30000C37BD4680BC704780B483B000AF78608E
:100B40000B467B807A887B68DA6000BF0C37BD4635
:100B500080BC704780B485B000AF78600023FB6034
:100B60000BE00023BB6002E0BB680133BB60BB68E5
:100B7000FE2BF9D9FB680133FB60FA687B689A4267
:100B8000EFD300BF00BF1437BD4680BC70470000E4
:100B900080B400AF074B9B69064A43F0040393619E
:100BA000044B9B69034A43F00803936100BFBD46B1
:100BB00080BC70470010024080B582B000AFFFF7E4
:100BC000E7FFFFF705FC2048FFF758FD40F2EE2055
:100BD000FFF7C0FFFFF786FCFFF7CAFA1B48FFF7D5
:100BE0004DFD40F2EE20FFF7B5FFFFF77BFC002341
:100BF0007B60FFF72DFB0346FB70FB78212B02D0B7
:100C0000412B05D11FE000237B60FFF76BFC1AE04E
:100C1000FB781846FFF7D0FC7B6801337B607B686C
:100C2000102B04D100210220FFF7FCFD0AE07B68B5
:100C3000202B07D1FFF756FC00210120FFF7F2FD22
:100C400000237B6000BFD4E7040D0008140D0008EA
:100C50000D488546AFF300800C480D490D4A00232E
:100C600002E0D458C4500433C4188C42F9D30A4A61
:100C70000A4C002301E013600432A242FBD300F0CF
:100C800011F8FFF799FFFEE7002800200000002080
:100C900020000020300D000820000020440000202B
:100CA000FEE7000070B500260C4D0D4C641BA4102F
:100CB000A64209D100F01AF800260A4D0A4C641B1E
:100CC000A410A64205D170BD55F8043B98470136E3
:100CD000EEE755F8043B98470136F2E7280D000887
:100CE000280D0008280D00082C0D0008F8B500BFDD
:100CF000F8BC08BC9E467047F8B500BFF8BC08BCFD
:040D00009E46704754
:100D04004C43442069732072656164792E2E2E0051
:100D14004B65797061642069732072656164792E12
:040D24002E2E00006F
:040D28005501000869
:040D2C003101000889
:100D30000100000002000000080000001000000098
:100D400020000000400000008000000000010000C2
:0400000508000C5192
:00000001FF
