:020000040800F2
:10000000002800204D0E00089D0E00089D0E0008DF
:100010009D0E00089D0E00089D0E000800000000C7
:100020000000000000000000000000009D0E00081D
:100030009D0E0008000000009D0E00089D0E0008A7
:100040009D0E00089D0E00089D0E00089D0E0008E4
:100050009D0E00089D0E00089D0E00089D0E0008D4
:100060009D0E00089D0E00089D0E00089D0E0008C4
:100070009D0E00089D0E00089D0E00089D0E0008B4
:100080009D0E00089D0E00089D0E00089D0E0008A4
:100090009D0E00089D0E00089D0E00089D0E000894
:1000A0009D0E00089D0E00089D0E00089D0E000884
:1000B0009D0E00089D0E00089D0E00089D0E000874
:1000C0009D0E00089D0E00089D0E00089D0E000864
:1000D0009D0E00089D0E00089D0E00089D0E000854
:1000E0009D0E00089D0E0008000000009D0E0008F7
:1000F0009D0E00089D0E00089D0E00089D0E000834
:100100009D0E00089D0E00089D0E00089D0E000823
:100110009D0E00089D0E00089D0E00089D0E000813
:100120009D0E00089D0E00089D0E00089D0E000803
:1001300010B5054C237833B9044B13B10448AFF321
:1001400000800123237010BD20000020000000006B
:10015000E80E000808B5034B1BB103490348AFF391
:10016000008008BD0000000024000020E80E000808
:1001700080B500AF344B01221A80334B04229A70B1
:10018000314B0122DA703049304800F091FC2E4B9F
:1001900002221A802C492D4800F08AFC2A4B0822A2
:1001A0001A802949294800F083FC274B10221A8025
:1001B0002549264800F07CFC234B20221A80224946
:1001C000224800F075FC204B40221A801E491F482F
:1001D00000F06EFC1C4B80221A801B491B4800F06B
:1001E00067FC194B4FF480721A801749174800F0CA
:1001F0005FFC01220121154800F0EFFC01220221E1
:10020000124800F0EAFC01220821104800F0E5FC49
:10021000012210210D4800F0E0FC012220210B48B2
:1002200000F0DBFC01224021084800F0D6FC01224E
:100230008021064800F0D1FC01224FF48071034870
:1002400000F0CBFC00BF80BD3C000020000C014052
:1002500080B582B000AF00237B60AAE0012220219C
:10026000584800F0BAFC01224021564800F0B5FC85
:1002700001228021534800F0B0FC01224FF480712C
:10028000504800F0AAFC504A7B6852F823309BB2D9
:10029000002219464B4800F0A0FC00233B6081E09F
:1002A0004A4A3B6852F823309BB21946454800F051
:1002B0007BFC0346002B72D100BF444A3B6852F8D6
:1002C00023309BB219463F4800F06EFC0346002BDA
:1002D000F3D07B68032B62D801A252F823F000BF51
:1002E000F10200081903000841030008690300082F
:1002F0003B68002B01D1372360E03B68012B01D123
:1003000034235BE03B68022B01D1312356E03B688C
:10031000032B3DD1212351E03B68002B01D1382331
:100320004CE03B68012B01D1352347E03B68022BB1
:1003300001D1322342E03B68032B2BD130233DE037
:100340003B68002B01D1392338E03B68012B01D1F8
:10035000362333E03B68022B01D133232EE03B6888
:10036000032B19D13D2329E03B68002B01D12F231A
:1003700024E03B68012B01D12A231FE03B68022BBC
:1003800001D12D231AE03B68032B07D12B2315E065
:1003900000BF04E000BF02E000BF00E000BF3B6818
:1003A00001333B603B68032B7FF67AAF7B680133F8
:1003B0007B607B68032B7FF651AF412318460837DB
:1003C000BD4680BD000C0140100000200000002050
:1003D00080B500AF192000F025FC404B4FF480623F
:1003E0001A803E4B04229A703C4B0122DA703B4942
:1003F0003B4800F05DFB394B4FF400621A803749EF
:10040000374800F055FB354B4FF400721A803349E2
:10041000334800F04DFB00224FF48061304800F07B
:10042000DCFB00224FF400612D4800F0D6FB0022D7
:100430004FF400712A4800F0D0FB284B01221A80AB
:10044000264B04229A70254B0122DA702349244856
:1004500000F02EFB214B02221A802049204800F098
:1004600027FB1E4B04221A801C491D4800F020FB6C
:100470001A4B08221A801949194800F019FB174B2A
:1004800010221A801549164800F012FB134B202247
:100490001A801249124800F00BFB104B40221A80C0
:1004A0000E490F4800F004FB0C4B80221A800B49C8
:1004B0000B4800F0FDFA0F2000F0B4FB00F012F83A
:1004C000382000F017F8062000F014F8802000F023
:1004D00011F80F2000F00EF800BF80BD4000002092
:1004E0000008014080B500AF012000F003F800BF14
:1004F00080BD000080B582B000AF0346FB7100F004
:10050000EBF82B4B01221A80294B04229A70284BBE
:100510000122DA702649274800F0CAFA244B022249
:100520001A802349234800F0C3FA214B04221A8081
:100530001F49204800F0BCFA1D4B08221A801C49B4
:100540001C4800F0B5FA1A4B10221A8018491948B5
:1005500000F0AEFA164B20221A801549154800F01B
:10056000A7FA134B40221A801149124800F0A0FA52
:100570000F4B80221A800E490E4800F099FAFB7941
:100580009BB219460B4800F03FFB00224FF400617C
:10059000084800F022FB00224FF40071054800F0EB
:1005A0001CFB00F029F900BF0837BD4680BD00BF25
:1005B000400000200008014080B582B000AF034633
:1005C000FB7100F089F82B4B01221A80294B042281
:1005D0009A70284B0122DA702649274800F068FA01
:1005E000244B02221A802349234800F061FA214B50
:1005F00004221A801F49204800F05AFA1D4B082295
:100600001A801C491C4800F053FA1A4B10221A8019
:100610001849194800F04CFA164B20221A80154947
:10062000154800F045FA134B40221A801149124830
:1006300000F03EFA0F4B80221A800E490E4800F05F
:1006400037FAFB799BB219460B4800F0DDFA01221C
:100650004FF40061084800F0C0FA00224FF4007126
:10066000054800F0BAFA00F0C7F800BF0837BD46E9
:1006700080BD00BF400000200008014080B584B06C
:1006800000AF78600023FB601CE07B685A1C7A6036
:100690001B781846FFF790FFFB680133FB60FB688F
:1006A000102B04D10021022000F0BCF80AE0FB6806
:1006B000202B07D1FFF716FF0021012000F0B2F830
:1006C0000023FB607B681B78002BDED100BF00BFDE
:1006D0001037BD4680BD000080B500AF444B0122FD
:1006E0001A80434B01229A704149424800F0E0F9D8
:1006F0003F4B02221A803E493E4800F0D9F93C4B5C
:1007000004221A803A493B4800F0D2F9384B0822BB
:100710001A803749374800F0CBF9354B10221A8040
:100720003349344800F0C4F9314B20221A80304953
:10073000304800F0BDF92E4B40221A802C492D483C
:1007400000F0B6F92A4B80221A802949294800F086
:10075000AFF98021274800F027FA0346002B01D08B
:1007600000F04AF8224B01221A80214B04229A7091
:100770001F4B0122DA701E491E4800F099F91C4BEC
:1007800002221A801A491B4800F092F9184B0422E1
:100790001A801749174800F08BF9154B08221A8068
:1007A0001349144800F084F9114B10221A801049A3
:1007B000104800F07DF90E4B20221A800C490D489C
:1007C00000F076F90A4B40221A800949094800F0E6
:1007D0006FF9074B80221A800549064800F068F936
:1007E00000224FF40071034800F0F7F900BF80BD0C
:1007F000400000200008014080B500AF01224FF406
:100800008061074800F0E9F9322000F00BFA00227D
:100810004FF48061024800F0E0F900BF80BD00BFE6
:100820000008014080B582B000AF03460A46FB7164
:100830001346BB71FB79012B09D1BB790F2B12D861
:10084000BB79803BDBB21846FFF754FE0BE0FB7927
:10085000022B08D1BB790F2B05D8BB79403BDBB20B
:100860001846FFF747FE00BF0837BD4680BD80B57C
:1008700082B000AF786039603968786800F018F9A4
:1008800000BF0837BD4680BD80B582B000AF78603C
:10089000396039687868FFF7EAFF00BF0837BD465E
:1008A00080BD80B582B000AF786039603968786803
:1008B000FFF7DDFF00BF0837BD4680BD80B582B0C1
:1008C00000AF7860396039687868FFF7D0FF00BF03
:1008D0000837BD4680BD80B582B000AF7860396012
:1008E00039687868FFF7C3FF00BF0837BD4680BD91
:1008F00080B582B000AF7860396039687868FFF7FA
:10090000B6FF00BF0837BD4680BD80B582B000AFDE
:100910007860396039687868FFF7A9FF00BF083749
:10092000BD4680BD80B582B000AF7860396039685F
:100930007868FFF79CFF00BF0837BD4680BD000008
:1009400080B483B000AF0346FB80FB88B3F5004F53
:1009500000F0A580B3F5004F00F3A380B3F5804FFE
:1009600000F09B80B3F5804F00F39B80B3F5005FF0
:1009700000F09180B3F5005F00F39380B3F5805FE2
:1009800000F08780B3F5805F00F38B80B3F5006FD4
:100990007DD0B3F5006F00F38480B3F5806F74D021
:1009A000B3F5806F7DDCB3F5007F6CD0B3F5007FCD
:1009B00077DCB3F5807F64D0B3F5807F71DC802B6A
:1009C0005DD0802B6DDC202B48DC002B69DD013BEA
:1009D0001F2B66D801A252F823F000BF630A00085B
:1009E000670A0008A30A00086B0A0008A30A0008A7
:1009F000A30A0008A30A00086F0A0008A30A000857
:100A0000A30A0008A30A0008A30A0008A30A000812
:100A1000A30A0008A30A0008730A0008A30A000832
:100A2000A30A0008A30A0008A30A0008A30A0008F2
:100A3000A30A0008A30A0008A30A0008A30A0008E2
:100A4000A30A0008A30A0008A30A0008A30A0008D2
:100A5000A30A0008A30A0008770A0008402B0CD05C
:100A60001FE000231EE004231CE008231AE00C23EF
:100A700018E0102316E0142314E0182312E01C23BE
:100A800010E000230EE004230CE008230AE00C230E
:100A900008E0102306E0142304E0182302E01C23DE
:100AA00000E0002318460C37BD4680BC704700BFED
:100AB00080B586B000AF7860396000233B610023C9
:100AC000FB753B681B88802B02D97B68043300E0F0
:100AD0007B683B613B681B881846FFF731FF034684
:100AE000FB603B691B680F21FA6801FA02F2D243EE
:100AF0001A403B691A603B689B78072B0BD03B6818
:100B00009B78062B07D03B689B78052B03D03B686E
:100B10009B78042B0ED13B689B78043B9B005AB218
:100B20003B68DB785BB213435BB2DBB203F00F03CD
:100B3000FB752CE03B689B78002B03D03B689B78CF
:100B4000012B07D13B689B789B00DBB203F00F03BE
:100B5000FB751CE03B689B78082B02D10423FB75D6
:100B600015E00823FB753B689B78022B07D17B6857
:100B7000DB683A6812881A437B68DA6007E07B68B2
:100B8000DA683B681B88DB431A407B68DA603B69A4
:100B90001A68F97DFB6801FA03F31A433B691A608E
:100BA00000BF1837BD4680BD80B485B000AF786007
:100BB0000B467B807B689B689AB27B8813409BB214
:100BC000002B02D00123FB7301E00023FB73FB7BAE
:100BD00018461437BD4680BC704780B483B000AF60
:100BE00078600B467B8013467B707B78002B03D0AC
:100BF0007A887B681A6102E07A887B685A6100BF54
:100C00000C37BD4680BC704780B483B000AF7860BD
:100C10000B467B807A887B68DA6000BF0C37BD4664
:100C200080BC704780B485B000AF78600023FB6063
:100C30000BE00023BB6002E0BB680133BB60BB6814
:100C4000FE2BF9D9FB680133FB60FA687B689A4296
:100C5000EFD300BF00BF1437BD4680BC7047000013
:100C600080B400AF074B9B69064A43F004039361CD
:100C7000044B9B69034A43F00803936100BFBD46E0
:100C800080BC70470010024080B582B000AF4FF4C6
:100C90000043BB800423BB710123FB713B1D19463C
:100CA0001B48FFF7F1FD4FF48043BB803B1D194605
:100CB0001748FFF7F6FD4FF40053BB803B1D194664
:100CC0001348FFF7FBFD4FF48053BB803B1D1946D3
:100CD0000F48FFF700FE4FF40063BB803B1D194631
:100CE0000B48FFF705FE4FF48063BB803B1D1946A0
:100CF0000748FFF70AFE4FF40073BB803B1D1946FF
:100D00000348FFF70FFE00BF0837BD4680BD00BF98
:100D1000000C014080B588B000AF0023BB61FFF735
:100D20009FFFFFF755FB4348FFF7A8FC40F2EE207A
:100D3000FFF778FFFFF7D6FB40F2EE20FFF772FFD8
:100D4000FFF7D0FBFFF7A0FF3B48FFF797FC4FF4FE
:100D50007E413A48FFF758FF40F2EE20FFF762FF6E
:100D6000FFF7C0FB364A07F10C0307CA03C31A801A
:100D70000233120C1A70334A3B4607CA03C31A8067
:100D80000233120C1A700023FB6117E007F10C020A
:100D9000FB6913441B781846FFF70EFC3A46FB69C3
:100DA00013441B785B029BB219462448FFF72CFFC3
:100DB000FA20FFF737FFFB690133FB61FB690A2B60
:100DC000E4D9FFF78FFBFFF7D3F91F48FFF756FC75
:100DD00040F2EE20FFF726FFFFF784FBFFF738FA1B
:100DE0000346FB75FB7D212B02D0412B05D11FE073
:100DF0000023BB61FFF776FB1AE0FB7D1846FFF787
:100E0000DBFBBB690133BB61BB69102B04D1002143
:100E10000220FFF707FD0AE0BB69202B07D1FFF78F
:100E200061FB00210120FFF7FDFC0023BB6100BF37
:100E3000D4E700BF000F0008100F0008000C0140AD
:100E40003C0F0008480F0008280F00080D48854691
:100E5000AFF300800C480D490D4A002302E0D4583E
:100E6000C4500433C4188C42F9D30A4A0A4C0023F4
:100E700001E013600432A242FBD300F011F8FFF747
:100E800049FFFEE70028002000000020200000208D
:100E90005C0F00082000002044000020FEE7000056
:100EA00070B500260C4D0D4C641BA410A64209D150
:100EB00000F01AF800260A4D0A4C641BA410A64242
:100EC00005D170BD55F8043B98470136EEE755F85B
:100ED000043B98470136F2E7540F0008540F00080E
:100EE000540F0008580F0008F8B500BFF8BC08BC44
:100EF0009E467047F8B500BFF8BC08BC9E467047D8
:100F00004C43442069732072656164792E2E2E0053
:100F1000372D5345474D454E542069732D202020D1
:100F200072656164792E2E004B6579706164206969
:100F3000732072656164792E2E2E000030313233B9
:100F40003435363738393000014F12064C24200D25
:040F50000004010098
:040F5400550100083B
:040F5800310100085B
:100F5C00010000000200000008000000100000006A
:100F6C002000000040000000800000000001000094
:0400000508000E4D94
:00000001FF
