:100000000C942A000C9434000C9434000C943400AA
:100010000C9434000C9434000C9434000C94340090
:100020000C9434000C9434000C9434000C94340080
:100030000C9434000C9434000C9434000C94340070
:100040000C9434000C9434000C9434000C94340060
:100050000C94340011241FBECFE5D8E0DEBFCDBF25
:100060000E9451000C9467000C94000080E181BB59
:1000700082B3806182BB2FEB86EB96E021508040FB
:100080009040E1F700C0000082B38F7E82BB2FEB6F
:1000900086EB96E0215080409040E1F700C00000E0
:1000A00008950E943600809BFECF82B3806182BBA0
:1000B0002FE38EE795E0215080409040E1F700C0AB
:1000C000000082B38F7E82BB8099FECFECCFF89484
:0200D000FFCF60
:00000001FF
