:100000000C942A000C9434000C9434000C943400AA
:100010000C9434000C9434000C9434000C94340090
:100020000C9434000C9434000C9434000C94340080
:100030000C9434000C9434000C9434000C94340070
:100040000C9434000C9434000C9434000C94340060
:100050000C94340011241FBECFE5D8E0DEBFCDBF25
:100060000E9459000C943D010C9400008CEF84BB5D
:1000700088E885BB2FEF89E698E1215080409040C9
:10008000E1F700C0000084E885BB2FEF89E698E126
:10009000215080409040E1F700C0000015BA2FE7E2
:1000A0008AE196E0215080409040E1F700C00000D6
:1000B00008950E94360040E050E0DBC0942F9295F6
:1000C000907F986095BB6FE778E381E06150704066
:1000D0008040E1F700C00000822F8295807F84601D
:1000E00085BBEFE768E371E0E15060407040E1F705
:1000F00000C0000095BBEFE768E371E0E1506040AD
:100100007040E1F700C0000085BBEFE768E371E0F5
:10011000E15060407040E1F700C0000095BBEFE7A0
:1001200068E371E0E15060407040E1F700C000001A
:1001300085BBEFE768E371E0E15060407040E1F7B4
:1001400000C0000095BBEFE768E371E0E15060405C
:100150007040E1F700C0000085BBEFE768E371E0A5
:10016000E15060407040E1F700C0000095BBEFE750
:1001700068E371E0E15060407040E1F700C00000CA
:1001800085BBEFE768E371E0E15060407040E1F764
:1001900000C0000095BBEFE768E371E0E15060400C
:1001A0007040E1F700C0000085BBEFE768E371E055
:1001B000E15060407040E1F700C0000095BBEFE700
:1001C00068E371E0E15060407040E1F700C000007A
:1001D00085BBEFE768E371E0E15060407040E1F714
:1001E00000C0000095BBEFE768E371E0E1506040BC
:1001F0007040E1F700C0000085BBEFE768E371E005
:10020000E15060407040E1F700C0000095BBEFE7AF
:1002100068E371E0E15060407040E1F700C0000029
:1002200085BBEFE768E371E0E15060407040E1F7C3
:1002300000C0000095BB9FE7E8E361E09150E0401B
:100240006040E1F700C0000085BB7FE788E391E0F4
:10025000715080409040E1F700C000002F5F3F4F99
:1002600002C020E030E02A30310508F427CF4F5F8C
:0E0270005F4F4A305105A8F31ECFF894FFCF20
:00000001FF
