:100000000C942A000C9434000C9434000C943400AA
:100010000C9434000C9434000C9434000C94340090
:100020000C9434000C9434000C9434000C94340080
:100030000C9434000C9434000C9434000C94340070
:100040000C9434000C9434000C9434000C94340060
:100050000C94340011241FBECFE5D8E0DEBFCDBF25
:100060000E9451000C9499000C94000080EE81BB1A
:1000700082B3806E82BB2FEF84E39CE021508040EE
:100080009040E1F700C0000082B38F7182BB2FEF78
:1000900084E39CE0215080409040E1F700C00000E4
:1000A0000895CF93DF9300D0CDB7DEB70E9436001E
:1000B0001A8219820BC0809B09C082B3806282BB06
:1000C0008099FECF81E090E09A83898389819A812B
:1000D000892B89F30BC0809B09C082B3806482BBEB
:1000E0008099FECF82E090E09A83898389819A810A
:1000F000019789F30BC0809B09C082B3806882BBE3
:100100008099FECF83E090E09A83898389819A81E8
:10011000029789F309C0809B07C082B38F7182BBAD
:100120008099FECF1A82198289819A81039799F367
:06013000CDCFF894FFCFD3
:00000001FF
