:100000000C942A000C943F000C943F000C943F0089
:100010000C943F000C943F000C943F000C943F0064
:100020000C943F000C943F000C943F000C943F0054
:100030000C943F000C943F000C943F000C943F0044
:100040000C943F000C943F000C943F000C943F0034
:100050000C943F0011241FBECFE5D8E0DEBFCDBF1A
:1000600010E0A0E6B0E0E8E2F3E002C005900D92F7
:10007000A037B107D9F70E9460010C9492010C944B
:10008000000081B3807F81BB81B3806F81BB8FEF24
:1000900082BB089560E070E077C082B3806F82BB5E
:1000A00022B3FB01EE0FFF1FE05AFF4F81E090E00B
:1000B000008002C0880F991F0A94E2F7809582237E
:1000C00082BB40E050E05AC080B3FA01EE0FFF1F40
:1000D000E859FF4F208190E0022E02C09595879548
:1000E0000A94E2F780FD48C080B390E0022E02C07F
:1000F000959587950A94E2F780FFF6CF61307105F8
:10010000A9F038F062307105F1F06330710541F10A
:1001100033C041155105F1F141305105E9F142304B
:100120005105E1F14330510539F53AC0411551050A
:10013000C9F141305105C1F142305105B9F14330A7
:100140005105D1F435C041155105A1F1413051059A
:1001500099F14230510591F14330510569F430C0B5
:100160004115510579F14130510571F14230510588
:1001700069F14330510561F14F5F5F4F44305105E4
:1001800008F4A2CF6F5F7F4F6430710508F485CF0C
:1001900081E4089587E3089584E3089581E3089551
:1001A00081E2089588E3089585E3089582E3089540
:1001B00080E3089589E3089586E3089583E308952D
:1001C0008DE308958FE208958AE208958DE20895FF
:1001D0008BE2089588B3886088BB2FE788E391E0BD
:1001E000215080409040E1F700C0000088B3877F35
:1001F00088BB08958AB31ABA88B3846088BB88B371
:100200008D7F88BBCF990E94EA008AB38FEF8ABBAB
:1002100088B38B7F88BB0895CF93C82F0E94FA00C4
:10022000CBBB88B3897F88BB0E94EA00CF91089539
:1002300081E00E940C0108958FE493EC0197F1F79F
:1002400000C0000087B38E6087BB88B3817F88BB06
:100250008FEF8ABB8FE295E70197F1F700C00000AE
:100260000E94180188E30E940C0186E00E940C01A4
:1002700080E80E940C018FE00E940C010895CF934A
:10028000C82F0E94FA00CBBB88B3826088BB88B3BA
:100290008B7F88BB0E94EA00CF910895813039F4AA
:1002A000603168F480E8860F0E940C010895823066
:1002B00031F4603120F480EC860F0E940C01089527
:1002C0000E941C010E9441002FE788E391E0215029
:1002D00080409040E1F700C00000C0E0D0E00E9404
:1002E0004A00813219F08134D1F305C00E9418010F
:1002F000C0E0D0E0F4CF0E943F012196C031D1058B
:1003000029F460E082E00E944E01E9CFC032D105BD
:1003100031F70E94180160E081E00E944E01C0E0C8
:08032000D0E0DDCFF894FFCF1F
:1003280004000500060007000000010002000300A9
:00000001FF
