:100000000C942A000C9434000C9434000C943400AA
:100010000C9434000C9434000C9434000C94340090
:100020000C9434000C9434000C9434000C94340080
:100030000C9434000C9434000C9434000C94340070
:100040000C9434000C9434000C9434000C94340060
:100050000C94340011241FBECFE5D8E0DEBFCDBF25
:100060000E9436000C9477000C94000080EE81BB57
:1000700020E030E018C042B3B9016B5F7F4F81E0F0
:1000800090E002C0880F991F6A95E2F7842B82BB2B
:100090004FEF84E39CE0415080409040E1F700C086
:1000A00000002F5F3F4F2330310528F320E030E080
:1000B0001AC042B367E070E0621B730B81E090E00E
:1000C00002C0880F991F6A95E2F78095842382BB4E
:1000D0004FEF84E39CE0415080409040E1F700C046
:1000E00000002F5F3F4F2330310518F3C1CFF89444
:0200F000FFCF40
:00000001FF
