:020000040800F2
:100000000028002051020008A1020008A1020008F7
:10001000A1020008A1020008A102000800000000DF
:10002000000000000000000000000000A102000825
:10003000A102000800000000A1020008A1020008BF
:10004000A1020008A1020008A1020008A102000804
:10005000A1020008A1020008FD010008A102000899
:10006000A1020008A1020008A1020008A1020008E4
:10007000A1020008A1020008A1020008A1020008D4
:10008000A1020008A1020008A1020008A1020008C4
:10009000A1020008A1020008A1020008A1020008B4
:1000A000A1020008A1020008A1020008A1020008A4
:1000B000A1020008A1020008A1020008A102000894
:1000C000A1020008A1020008A1020008A102000884
:1000D000A1020008A1020008A1020008A102000874
:1000E000A1020008A102000800000000A10200080F
:1000F000A1020008A1020008A1020008A102000854
:10010000A1020008A1020008A1020008A102000843
:10011000A1020008A1020008A1020008A102000833
:10012000A1020008A1020008A1020008A102000823
:1001300010B5054C237833B9044B13B10448AFF321
:1001400000800123237010BD00000020000000008B
:10015000EC02000808B5034B1BB103490348AFF399
:10016000008008BD0000000004000020EC02000830
:1001700080B400AF044B1B68034A43F004031360D0
:1001800000BFBD4680BC70471810024080B400AF6D
:10019000074B1B68064A23F470031360044B1B686B
:1001A000034A43F40013136000BFBD4680BC704790
:1001B0000408014080B400AF074B1B68064A43F0B7
:1001C00001031360054B1B68044A43F001031360ED
:1001D00000BFBD4680BC70470004014008040140D8
:1001E00080B400AF044B1B68034A43F04003136024
:1001F00000BFBD4680BC704700E100E080B400AFA6
:100200000B4B1B68C3F34033DBB2094A83F0010395
:10021000D9B2138861F34D331380064B1B68054A2E
:1002200043F00103136000BFBD4680BC704700BFB0
:100230000C0801401404014080B500AFFFF798FF9F
:10024000FFF7A4FFFFF7B6FFFFF7CAFF00BFFDE708
:100250000D488546AFF300800C480D490D4A002338
:1002600002E0D458C4500433C4188C42F9D30A4A6B
:100270000A4C002301E013600432A242FBD300F0D9
:1002800011F8FFF7D9FFFEE700280020000000204A
:10029000000000200C030008000000201C000020CB
:1002A000FEE7000070B500260C4D0D4C641BA41039
:1002B000A64209D100F01AF800260A4D0A4C641B28
:1002C000A410A64205D170BD55F8043B98470136ED
:1002D000EEE755F8043B98470136F2E704030008BF
:1002E000040300080403000808030008F8B500BF71
:1002F000F8BC08BC9E467047F8B500BFF8BC08BC07
:040300009E4670475E
:040304005501000897
:0403080031010008B7
:04000005080002519C
:00000001FF
