:020000040800F2
:100000000028002025130008751300087513000848
:100010007513000875130008751300080000000030
:100020000000000000000000000000007513000840
:100030007513000800000000751300087513000810
:100040007513000875130008751300087513000870
:100050007513000875130008751300087513000860
:100060007513000875130008751300087513000850
:100070007513000875130008751300087513000840
:100080007513000875130008751300087513000830
:100090007513000875130008751300087513000820
:1000A0007513000875130008751300087513000810
:1000B0007513000875130008751300087513000800
:1000C00075130008751300087513000875130008F0
:1000D00075130008751300087513000875130008E0
:1000E0007513000875130008000000007513000860
:1000F00075130008751300087513000875130008C0
:1001000075130008751300087513000875130008AF
:10011000751300087513000875130008751300089F
:10012000751300087513000875130008751300088F
:1001300010B5054C237833B9044B13B10448AFF321
:1001400000800123237010BD50000020000000003B
:10015000C81C000808B5034B1BB103490348AFF3A3
:10016000008008BD0000000054000020C81C0008EA
:100170004FF0FF0C1CEAD0521EBF1CEAD15392EA8A
:100180000C0F93EA0C0F6FD01A4480EA010C400266
:1001900018BF5FEA41211ED04FF0006343EA5010C0
:1001A00043EA5111A0FB01310CF00040B1F5000F02
:1001B0003EBF490041EAD3715B0040EA010062F1B1
:1001C0007F02FD2A1DD8B3F1004F40EBC25008BF9B
:1001D00020F00100704790F0000F0CF0004C08BFB9
:1001E00049024CEA502040EA51207F3AC2BFD2F186
:1001F000FF0340EAC250704740F400004FF0000394
:10020000013A5DDC12F1190FDCBF00F000407047CD
:10021000C2F10002410021FA02F1C2F1200200FA0B
:1002200002FC5FEA310040F1000053EA4C0308BFD2
:1002300020EADC70704792F0000F00F0004C02BF23
:10024000400010F4000F013AF9D040EA0C0093F09E
:10025000000F01F0004C02BF490011F4000F013BF8
:10026000F9D041EA0C018FE70CEAD15392EA0C0F66
:1002700018BF93EA0C0F0AD030F0004C18BF31F0D1
:10028000004CD8D180EA010000F00040704790F0A7
:10029000000F17BF90F0004F084691F0000F91F04B
:1002A000004F14D092EA0C0F01D142020FD193EA11
:1002B0000C0F03D14B0218BF084608D180EA010099
:1002C00000F0004040F0FE4040F40000704740F075
:1002D000FE4040F44000704781F0004102E000BF62
:1002E00083F0004330B54FEA41044FEA430594EAF6
:1002F000050F08BF90EA020F1FBF54EA000C55EA31
:10030000020C7FEA645C7FEA655C00F0E2804FEA01
:100310005454D4EB5555B8BF6D420CDD2C4480EAE3
:10032000020281EA030382EA000083EA010180EA13
:10033000020281EA0303362D88BF30BD11F0004F61
:100340004FEA01314FF4801C4CEA113102D0404297
:1003500061EB410113F0004F4FEA03334CEA1333D2
:1003600002D0524263EB430394EA050F00F0A780EA
:10037000A4F10104D5F1200E0DDB02FA0EFC22FAE5
:1003800005F2801841F1000103FA0EF2801843FAD9
:1003900005F359410EE0A5F120050EF1200E012ACA
:1003A00003FA0EFC28BF4CF0020C43FA05F3C01808
:1003B00051EBE37101F0004507D54FF0000EDCF181
:1003C000000C7EEB00006EEB0101B1F5801F1BD32A
:1003D000B1F5001F0CD349085FEA30004FEA3C0C2E
:1003E00004F101044FEA445212F5800F80F09A8024
:1003F000BCF1004F08BF5FEA500C50F1000041EB28
:10040000045141EA050130BD5FEA4C0C404141EB2B
:100410000101013C28BFB1F5801FE9D291F0000F26
:1004200004BF01460020B1FA81F308BF2033A3F1D5
:100430000B03B3F120020CDA0C3208DD02F1140CCC
:10044000C2F10C0201FA0CF021FA02F10CE002F107
:100450001402D8BFC2F1200C01FA02F120FA0CFC00
:10046000DCBF41EA0C019040E41AA2BF01EB045149
:10047000294330BD6FEA04041F3C1CDA0C340EDC47
:1004800004F11404C4F1200220FA04F001FA02F38A
:1004900040EA030021FA04F345EA030130BDC4F148
:1004A0000C04C4F1200220FA02F001FA04F340EA3D
:1004B0000300294630BD21FA04F0294630BD94F0EE
:1004C000000F83F4801306BF81F480110134013DD5
:1004D0004EE77FEA645C18BF7FEA655C29D094EA46
:1004E000050F08BF90EA020F05D054EA000C04BFC4
:1004F0001946104630BD91EA030F1EBF00210020AF
:1005000030BD5FEA545C05D14000494128BF41F04D
:10051000004130BD14F580043CBF01F5801130BDB1
:1005200001F0004545F0FE4141F470014FF000003C
:1005300030BD7FEA645C1ABF194610467FEA655CED
:100540001CBF0B46024650EA013406BF52EA03358F
:1005500091EA030F41F4002130BD00BF90F0000F7D
:1005600004BF0021704730B54FF4806404F13204B9
:100570004FF000054FF0000150E700BF90F0000F72
:1005800004BF0021704730B54FF4806404F1320499
:1005900010F0004548BF40424FF000013EE700BF69
:1005A00042004FEAE2014FEA31014FEA02701FBFF9
:1005B00012F07F4393F07F4F81F06051704732F02B
:1005C0007F4208BF704793F07F4F04BF41F4002182
:1005D000704730B54FF4607401F0004521F00041E0
:1005E0001CE700BF50EA010208BF704730B54FF06A
:1005F00000050AE050EA010208BF704730B511F06B
:10060000004502D5404261EB41014FF4806404F1A2
:1006100032045FEA915C3FF4D8AE4FF003025FEA28
:10062000DC0C18BF03325FEADC0C18BF033202EBAC
:10063000DC02C2F1200300FA03FC20FA02F001FA06
:1006400003FE40EA0E0021FA02F11444BDE600BFA9
:100650004FF0FF3C06E000BF4FF0010C02E000BF8E
:100660004FF0010C4DF804CD4FEA410C7FEA6C5C71
:100670004FEA430C18BF7FEA6C5C1BD001B050EA14
:10068000410C0CBF52EA430C91EA030F02BF90EAFF
:10069000020F0020704710F1000F91EA030F58BFBE
:1006A000994208BF90422CBFD8176FEAE37040F020
:1006B000010070474FEA410C7FEA6C5C02D150EABE
:1006C000013C07D14FEA430C7FEA6C5CD6D152EA79
:1006D000033CD3D05DF8040B704700BF844610463E
:1006E00062468C461946634600E000BF01B5FFF73D
:1006F000B7FF002848BF10F1000F01BD4DF808ED0D
:10070000FFF7F4FF0CBF012000205DF808FB00BFDD
:100710004DF808EDFFF7EAFF34BF012000205DF837
:1007200008FB00BF4DF808EDFFF7E0FF94BF012084
:1007300000205DF808FB00BF4DF808EDFFF7CEFF85
:1007400094BF012000205DF808FB00BF4DF808EDC4
:10075000FFF7C4FF34BF012000205DF808FB00BF95
:100760004FEA410212F5001215D211D56FF47873D9
:10077000B3EB625212D94FEAC12343F0004343EA7C
:10078000505311F0004F23FA02F018BF4042704757
:100790004FF00000704750EA013005D111F00040E1
:1007A00008BF6FF0004070474FF00000704700BF77
:1007B0004FEA4102B2F1E04324BFB3F5001CDCF183
:1007C000FE5C0DD901F0004C4FEAC0024CEA5070BB
:1007D000B2F1004F40EB830008BF20F001007047EA
:1007E00011F0804F21D113F13872BCBF01F00040ED
:1007F000704741F480114FEA5252C2F11802C2F11F
:10080000200C10FA0CF320FA02F018BF40F001009F
:100810004FEAC1234FEAD32303FA0CFC40EA0C0051
:1008200023FA02F34FEA4303CCE77FEA625307D18E
:1008300050EA01331EBF4FF0FE4040F440007047C5
:1008400001F0004040F0FE4040F40000704700BF5F
:100850004FEA4002B2F1FE4F0FD34FF09E03B3EBCD
:1008600012620DD94FEA002343F0004310F0004F0D
:1008700023FA02F018BF404270474FF00000704763
:1008800012F1610F01D1420205D110F0004008BF02
:100890006FF0004070474FF00000704780B500AF28
:1008A000192000F07FFC404B4FF480621A803E4BD1
:1008B00004229A703C4B0122DA703B493B4800F01D
:1008C000B7FB394B4FF400621A803749374800F0C4
:1008D000AFFB354B4FF400721A803349334800F0B8
:1008E000A7FB00224FF48061304800F036FC002264
:1008F0004FF400612D4800F030FC00224FF40071ED
:100900002A4800F02AFC284B01221A80264B042298
:100910009A70254B0122DA702349244800F088FBA5
:10092000214B02221A802049204800F081FB1E4BF7
:1009300004221A801C491D4800F07AFB1A4B082239
:100940001A801949194800F073FB174B10221A80BE
:100950001549164800F06CFB134B20221A801249EF
:10096000124800F065FB104B40221A800E490F48D8
:1009700000F05EFB0C4B80221A800B490B4800F004
:1009800057FB0F2000F00EFC00F012F8382000F0AA
:1009900017F8062000F014F8802000F011F80F205E
:1009A00000F00EF800BF80BD6C0000200008014080
:1009B00080B500AF012000F003F800BF80BD00004B
:1009C00080B582B000AF0346FB7100F0EBF82B4B13
:1009D00001221A80294B04229A70284B0122DA70D6
:1009E0002649274800F024FB244B02221A80234981
:1009F000234800F01DFB214B04221A801F49204888
:100A000000F016FB1D4B08221A801C491C4800F000
:100A10000FFB1A4B10221A801849194800F008FBE6
:100A2000164B20221A801549154800F001FB134B84
:100A300040221A801149124800F0FAFA0F4B802226
:100A40001A800E490E4800F0F3FAFB799BB2194662
:100A50000B4800F099FB00224FF40061084800F0B9
:100A60007CFB00224FF40071054800F076FB00F09B
:100A700029F900BF0837BD4680BD00BF6C000020CB
:100A80000008014080B582B000AF0346FB7100F062
:100A900089F82B4B01221A80294B04229A70284B8B
:100AA0000122DA702649274800F0C2FA244B0222BC
:100AB0001A802349234800F0BBFA214B04221A80F4
:100AC0001F49204800F0B4FA1D4B08221A801C4927
:100AD0001C4800F0ADFA1A4B10221A801849194828
:100AE00000F0A6FA164B20221A801549154800F08E
:100AF0009FFA134B40221A801149124800F098FACD
:100B00000F4B80221A800E490E4800F091FAFB79B3
:100B10009BB219460B4800F037FB01224FF40061ED
:100B2000084800F01AFB00224FF40071054800F05D
:100B300014FB00F0C7F800BF0837BD4680BD00BFFA
:100B40006C0000200008014080B584B000AF7860E0
:100B50000023FB601CE07B685A1C7A601B781846F7
:100B6000FFF790FFFB680133FB60FB68102B04D19B
:100B70000021022000F0BCF80AE0FB68202B07D11E
:100B8000FFF716FF0021012000F0B2F80023FB6000
:100B90007B681B78002BDED100BF00BF1037BD463D
:100BA00080BD000080B500AF444B01221A80434B4A
:100BB00001229A704149424800F03AFA3F4B022222
:100BC0001A803E493E4800F033FA3C4B04221A801A
:100BD0003A493B4800F02CFA384B08221A80374932
:100BE000374800F025FA354B10221A803349344833
:100BF00000F01EFA314B20221A803049304800F0B4
:100C000017FA2E4B40221A802C492D4800F010FA7A
:100C10002A4B80221A802949294800F009FA8021AC
:100C2000274800F081FA0346002B01D000F04AF873
:100C3000224B01221A80214B04229A701F4B012261
:100C4000DA701E491E4800F0F3F91C4B02221A808C
:100C50001A491B4800F0ECF9184B04221A80174976
:100C6000174800F0E5F9154B08221A80134914487B
:100C700000F0DEF9114B10221A801049104800F0E4
:100C8000D7F90E4B20221A800C490D4800F0D0F9FC
:100C90000A4B40221A800949094800F0C9F9074B5C
:100CA00080221A800549064800F0C2F900224FF45C
:100CB0000071034800F051FA00BF80BD6C000020B5
:100CC0000008014080B500AF01224FF48061074861
:100CD00000F043FA322000F065FA00224FF4806100
:100CE000024800F03AFA00BF80BD00BF0008014092
:100CF00080B582B000AF03460A46FB711346BB7154
:100D0000FB79012B09D1BB790F2B12D8BB79803B22
:100D1000DBB21846FFF754FE0BE0FB79022B08D13B
:100D2000BB790F2B05D8BB79403BDBB21846FFF7E8
:100D300047FE00BF0837BD4680BD000080B584B0C7
:100D400000AF786007F108037A680649184600F09A
:100D500013FB07F108031846FFF7F6FE00BF103734
:100D6000BD4680BDE01C0008B0B590B002AFC7E939
:100D700000014FF000024FF00003D7E90001FFF738
:100D8000C7FC0346002B01D0254B00E0254B7B63BD
:100D90004FF000024FF00003D7E90001FFF7B8FC65
:100DA0000346002B04D03C687B6883F0004501E0DB
:100DB000D7E90045C7E90A45D7E90A01FFF7D0FCA2
:100DC00003467B62786AFFF7D9FB02460B46D7E9F8
:100DD0000A01FFF785FA02460B4610461946FFF74F
:100DE000E7FC03463B621049386AFFF7C1F9034646
:100DF0001846FFF72DFD0346FB6107F10C00FB6968
:100E000000937B6A7A6B094900F0B6FA07F10C038C
:100E10001846FFF799FE00BF3837BD46B0BD00BF8A
:100E2000E41C0008E81C00080050C347EC1C000844
:100E300080B500AF4020FFF7C3FD0020FFF722FE82
:100E40000E20FFF71FFE1120FFF71CFE0220FFF708
:100E500019FE0420FFF716FE0420FFF713FE002002
:100E6000FFF710FE0420FFF70DFE06210120FFF71B
:100E70003FFF0020FFF706FE4820FFF7A1FD0020FE
:100E8000FFF700FE0A20FFF7FDFD1520FFF7FAFD32
:100E90001120FFF7F7FD1220FFF7F4FD0420FFF704
:100EA000F1FD0020FFF7EEFD0020FFF7EBFD09212B
:100EB0000120FFF71DFF0120FFF7E4FD00BF80BD0B
:100EC00080B483B000AF0346FB80FB88B3F5004FCE
:100ED00000F0A580B3F5004F00F3A380B3F5804F79
:100EE00000F09B80B3F5804F00F39B80B3F5005F6B
:100EF00000F09180B3F5005F00F39380B3F5805F5D
:100F000000F08780B3F5805F00F38B80B3F5006F4E
:100F10007DD0B3F5006F00F38480B3F5806F74D09B
:100F2000B3F5806F7DDCB3F5007F6CD0B3F5007F47
:100F300077DCB3F5807F64D0B3F5807F71DC802BE4
:100F40005DD0802B6DDC202B48DC002B69DD013B64
:100F50001F2B66D801A252F823F000BFE30F000850
:100F6000E70F000823100008EB0F0008231000080B
:100F70002310000823100008EF0F000823100008BA
:100F80002310000823100008231000082310000875
:100F90002310000823100008F30F00082310000896
:100FA0002310000823100008231000082310000855
:100FB0002310000823100008231000082310000845
:100FC0002310000823100008231000082310000835
:100FD0002310000823100008F70F0008402B0CD046
:100FE0001FE000231EE004231CE008231AE00C236A
:100FF00018E0102316E0142314E0182312E01C2339
:1010000010E000230EE004230CE008230AE00C2388
:1010100008E0102306E0142304E0182302E01C2358
:1010200000E0002318460C37BD4680BC704700BF67
:1010300080B586B000AF7860396000233B61002343
:10104000FB753B681B88802B02D97B68043300E06A
:101050007B683B613B681B881846FFF731FF0346FE
:10106000FB603B691B680F21FA6801FA02F2D24368
:101070001A403B691A603B689B78072B0BD03B6892
:101080009B78062B07D03B689B78052B03D03B68E9
:101090009B78042B0ED13B689B78043B9B005AB293
:1010A0003B68DB785BB213435BB2DBB203F00F0348
:1010B000FB752CE03B689B78002B03D03B689B784A
:1010C000012B07D13B689B789B00DBB203F00F0339
:1010D000FB751CE03B689B78082B02D10423FB7551
:1010E00015E00823FB753B689B78022B07D17B68D2
:1010F000DB683A6812881A437B68DA6007E07B682D
:10110000DA683B681B88DB431A407B68DA603B691E
:101110001A68F97DFB6801FA03F31A433B691A6008
:1011200000BF1837BD4680BD80B485B000AF786081
:101130000B467B807B689B689AB27B8813409BB28E
:10114000002B02D00123FB7301E00023FB73FB7B28
:1011500018461437BD4680BC704780B483B000AFDA
:1011600078600B467B8013467B707B78002B03D026
:101170007A887B681A6102E07A887B685A6100BFCE
:101180000C37BD4680BC704780B483B000AF786038
:101190000B467B807A887B68DA6000BF0C37BD46DF
:1011A00080BC704780B485B000AF78600023FB60DE
:1011B0000BE00023BB6002E0BB680133BB60BB688F
:1011C000FE2BF9D9FB680133FB60FA687B689A4211
:1011D000EFD300BF00BF1437BD4680BC704700008E
:1011E00080B400AF074B9B69064A43F00403936148
:1011F000044B9B69034A43F00803936100BFBD465B
:1012000080BC70470010024080B500AFFFF7E8FFD8
:10121000FFF744FB2248FFF797FC40F2EE20FFF770
:10122000C1FFFFF7C5FB1F48FFF78EFC4FF4FA70B4
:10123000FFF7B8FFFFF7BCFB1B48FFF785FC4FF437
:10124000FA70FFF7AFFFFFF7B3FB1848FFF77CFC1E
:1012500011A1D1E90001FFF787FD4FF4FA70FFF704
:10126000A1FFFFF7A5FB1248FFF76EFC6320FFF715
:1012700065FD4FF4FA70FFF795FFFFF799FB0D48F6
:10128000FFF762FCFFF7D4FD40F2EE20FFF78AFF84
:10129000FFF78EFB00BFC6E729AE2AFBAE8456C01F
:1012A000F81C0008081D0008241D0008581D00082F
:1012B0007C1D0008981D000880B586B000AF7860DE
:1012C000144A154BD31A7B617B693B61134B1B6836
:1012D000002B02D1114B124A1A60104B1A687B681E
:1012E00013443A699A4207D200F066F803460C228A
:1012F0001A604FF0FF3309E0084B1B68FB60074B97
:101300001A687B681344054A1360FB68184618374F
:10131000BD4680BD002800200004000070000020B1
:10132000C00100200D488546AFF300800C480D49F0
:101330000D4A002302E0D458C4500433C4188C4230
:10134000F9D30A4A0A4C002301E013600432A24296
:10135000FBD300F037F8FFF757FFFEE70028002027
:101360000000002050000020FC1D0008500000205C
:10137000BC010020FEE700000EB46FF0004100B594
:101380009CB01DAB02900690079104910848094952
:1013900053F8042B0591006802A9019300F08AF923
:1013A0000022029B1A701CB05DF804EB03B070477A
:1013B000000000200802FFFF014B1868704700BFC3
:1013C0000000002070B500260C4D0D4C641BA410CD
:1013D000A64209D100F078FC00260A4D0A4C641B95
:1013E000A410A64205D170BD55F8043B98470136BC
:1013F000EEE755F8043B98470136F2E7F41D000884
:10140000F41D0008F41D0008F81D0008704770471F
:1014100038B50546002940D051F8043C0C1F002B7C
:10142000B8BFE41800F0DEF81C4A136833B96360F3
:1014300014602846BDE8384000F0DAB8A34208D965
:10144000206821188B4201BF19685B680918216068
:10145000EDE71A465B680BB1A342FAD91168501840
:10146000A0420BD120680144501883421160E0D1A2
:1014700018685B68084410605360DAE702D90C23EF
:101480002B60D6E7206821188B4201BF19685B6882
:101490000918216063605460CBE738BDB8010020B3
:1014A00070B50F4E0C463168054611B900F0AAFB25
:1014B00030602146284600F0A5FB431C03D14FF0C5
:1014C000FF34204670BDC41C24F00304A042F8D0B1
:1014D000211A284600F096FB0130F2D1EFE700BF59
:1014E000B40100202DE9F843CD1C25F00305083593
:1014F0000C2D38BF0C25002D064601DBA94204D96E
:101500000C2333600020BDE8F883DFF8D48000F0BE
:1015100069F8D8F800301C4644BB29463046FFF72E
:10152000BFFF431C044658D1D8F800402746002F7F
:1015300043D1002C4BD023683946304604EB0309D5
:1015400000F060FB814542D1216830466D1A294682
:10155000FFF7A6FF01303AD023682B442360D8F868
:1015600000305A6862BBC8F800700FE02268521B56
:1015700020D40B2A17D96119A342256018BF5960DE
:10158000636808BFC8F8001062514B60304600F035
:101590002FF804F10B00231D20F00700C21A1CBF16
:1015A0001B1AA350AFE76268A3420CBFC8F8002023
:1015B0005A60EBE723466468AEE73C467F68B6E7CF
:1015C0001A465B68A342FBD100235360DEE70C237D
:1015D0003046336000F00CF894E70560D6E700BFB2
:1015E000B80100200148FFF711BF00BFB001002083
:1015F0000148FFF70CBF00BFB00100202DE9F04704
:101600001F468E688246BE420C4690460B682DD817
:10161000B1F90C2012F4906F26D06569096905EBC9
:101620004505A3EB010905EBD5757B1C4B446D10FB
:101630009D4238BF1D46530527D52946FFF752FF67
:10164000064660B34A46216900F0FAFAA38923F4FA
:10165000906343F08003A38126614E4426603E469A
:101660006561A5EB0905A560BE4200D93E4632463C
:101670004146206800F0ACFA0020A3689B1BA360E1
:10168000236833442360BDE8F0872A4600F0E6FA79
:1016900006460028E0D150462169FFF7B9FE0C2329
:1016A000CAF80030A3894FF0FF3043F04003A38114
:1016B000E9E700002DE9F04F98468B8907461B06A5
:1016C0000D4614469DB010D50B6973B94021FFF744
:1016D00009FF2860286130B90C233B604FF0FF30D0
:1016E0001DB0BDE8F08F40236B61002309932023D8
:1016F0008DF8293030234FF00109CDF80C80DFF848
:1017000098818DF82A3023469A4613F8012B0AB1A6
:10171000252AF9D1BAEB040B0BD05B4622462946A9
:101720003846FFF76BFF013000F0A780099A5A4452
:1017300009929AF80030002B00F09F8000234FF0B0
:10174000FF32CDE905230AF1010A049307938DF8CE
:1017500053301A935446052214F8011B4E4800F0EA
:1017600061FA049AD8B9D00644BF20238DF85330CB
:10177000110744BF2B238DF853309AF800302A2BE1
:1017800015D0544600204FF00A0C079A214611F854
:10179000013B303B092B4BD9B0B1079214E0A0EBD1
:1017A000080309FA03F31343A2460493D2E7039B09
:1017B000191D1B680391002BBBBF5B4242F0020264
:1017C00007930793B8BF049223782E2B0AD163782E
:1017D0002A2B32D1039B02341A1D1B68039243EA61
:1017E000E3730593DFF8B4A003225046217800F09C
:1017F00019FA38B14022049BA0EB0A00824013433F
:101800000134049314F8011B062225488DF8281092
:1018100000F008FA002836D0224B1BBB039B07338D
:1018200023F0070308330393099B334409936AE7C2
:101830000C4601200CFB0232A8E700234FF00A0CF3
:10184000194601340593204610F8012B303A092A35
:1018500003D9002BC6D00591C4E7044601230CFB35
:101860000121F0E703AB00932A4638460E4B04A94A
:10187000AFF30080421C0646D6D1AB895B063FF52C
:101880002DAF09982CE703AB00932A463846064B48
:1018900004A900F07DF8EDE7BF1D0008C51D000894
:1018A000C91D000800000000FD1500082DE9F047E3
:1018B000164698468A680B6907469342B8BF134696
:1018C000336091F843200C46DDF820900AB10133D3
:1018D00033602368990642BF33680233336025685A
:1018E00015F0060506D104F1190AE36832689B1A5F
:1018F000AB422BDC94F843302268003B18BF012335
:10190000920630D44146384604F14302C8470130BC
:1019100023D02368226903F00603042B14BF00259B
:1019200033684FF0000608BFE56804F11A0408BFE9
:10193000ED1A54F8123C08BF25EAE5759342C4BF7E
:101940009B1AED18B5421AD1002008E00123524637
:1019500041463846C847013003D14FF0FF30BDE85B
:10196000F0870135C1E73020E11881F843005A1CA7
:1019700094F845102244023382F84310C2E7012351
:10198000224641463846C8470130E6D00136D9E7FD
:101990002DE9FF470F7E9146782F80460C469A46E8
:1019A0000C9E01F1430207D8622F0AD8002F00F0E5
:1019B000D380582F00F0BA8004F1420684F84270B8
:1019C0003AE0A7F16303152BF6D801A151F823F0F3
:1019D000291A00083D1A0008B9190008B9190008A9
:1019E000B9190008B91900083D1A0008B91900080A
:1019F000B9190008B9190008B91900083F1B0008F7
:101A0000671A0008F91A0008B9190008B91900087E
:101A1000611B0008B9190008671A0008B919000805
:101A2000B9190008011B000833681A1D1B683260D1
:101A300004F1420684F8423001239EE033682068B6
:101A4000191D3160060601D51D6803E04506FBD56A
:101A5000B3F90050002D03DA2D236D4284F8433092
:101A60000A23594811E021683368080653F8045BDB
:101A700002D4490648BFADB26F2F336014BF0A23AA
:101A800008235148002184F843106668002EA8BF3F
:101A90002168A660A4BF21F0040121600DB9002EC9
:101AA0004BD01646B5FBF3F103FB1157C75D06F8A3
:101AB000017D2F46BB420D46F4D9082B0BD123687C
:101AC000DF0708D5236961689942DEBF302306F835
:101AD000013C06F1FF36921B22614B4621464046EF
:101AE000CDF800A003AAFFF7E1FE01304AD14FF084
:101AF000FF3004B0BDE8F087236843F02003236083
:101B00007827324884F84570236831681F0651F8F9
:101B1000045B02D45F0648BFADB23160D90744BF51
:101B200043F0200323601DB11023ABE72648E9E70B
:101B3000236823F020032360F6E71646BDE73368E9
:101B40002568181D616930602E061B6801D5196073
:101B500002E06806FBD51980002316462361BCE726
:101B6000336800211A1D32601E686268304600F03A
:101B700059F808B1801B606063682361002384F812
:101B80004330AAE73246494640462369D0470130F0
:101B9000ADD023689B0713D4E068039B9842B8BF7D
:101BA0001846A6E70123324649464046D047013051
:101BB0009DD00135E36803995B1AAB42F2DCEBE799
:101BC000002504F11906F5E7D01D0008E11D000805
:101BD000884210B501EB020402D98442234607D89B
:101BE000431EA14208D011F8012B03F8012FF8E79A
:101BF000014602448A4200D110BD13F8014D02F89B
:101C0000014DF7E738B50023054D044608462B6023
:101C1000FFF752FB431C02D12B6803B1236038BD90
:101C2000AC010020034610B5C9B2024493421846E5
:101C300001D1002003E0047801338C42F6D110BDBD
:101C40000A44914200F1FF3300D1704710B511F8FA
:101C5000014B914203F8014FF9D110BD2DE9F0413C
:101C6000804615460C4621B91146BDE8F041FFF704
:101C700039BC2AB9FFF7CCFB00242046BDE8F0812F
:101C800000F01AF88542064602D8B5EB500FF4D89A
:101C900029464046FFF726FC07460028ECD0B5420F
:101CA0002A46214628BF3246FFF7CAFF2146404652
:101CB000FFF7AEFB3C46E0E751F8043C181F002B51
:101CC000BCBF0B58C0187047F8B500BFF8BC08BCC3
:101CD0009E467047F8B500BFF8BC08BC9E467047EA
:101CE000256400002D00000000000000257325641D
:101CF0002E253035640000004C4344206973207267
:101D0000656164792E2E2E0048656C6C6F21202051
:101D100049276D204D696E6120426173616C6C7959
:101D20002E2E00005468697320697320612062724E
:101D3000696566205465737420746F2076657269D6
:101D4000667920206D79204C43442D447269766574
:101D5000722E2E2E00000000446973706C61796948
:101D60006E6720612D2020205265616C204E756DBC
:101D700062657220203A20202000000044697370C0
:101D80006C6179696E6720616E2D2020496E7465E3
:101D9000676572203A200000446973706C6179694C
:101DA0006E67202020202020437573746F6D2043C0
:101DB000686172616374652D7273203A202000237C
:101DC0002D302B2000686C4C006566674546470047
:101DD0003031323334353637383941424344454661
:101DE00000303132333435363738396162636465F7
:041DF0006600000089
:041DF400550100088D
:041DF80031010008AD
:101DFC00040000200000000074000020DC00002023
:101E0C004401002000000000000000000000000061
:101E1C0000000000000000000000000000000000B6
:101E2C0000000000000000000000000000000000A6
:101E3C000000000000000000000000000000000096
:0400000508001325B7
:00000001FF
